:0400000007EF00F016
:0A0008001B8201ED04F085EF06F005
:1008000000000600E1CF15F0E2CF16F0D9CF17F0C7
:10081000DACF18F0F3CF19F0F4CF1AF0F2A413EFF7
:1008200004F015EF04F038EF05F0F29422EEDEF05C
:1008300010EE03F0DE50E126DD50E222E604D8A4FB
:1008400024EF04F026EF04F092EF04F022EEDEF045
:1008500010EE06F0DE50E126DD50E222E0CFE7FFA9
:1008600022EEDEF010EE08F0DE50E126DD50E2224E
:10087000D8CFE7FF22EEDEF010EE07F0DE50E126E3
:10088000DD50E222E8CFE7FF22EEDEF010EE69F065
:10089000DE50E126DD50E222E76A81EF04F022EE2D
:1008A000DEF010EE69F0DE50E126DD50E222E75086
:1008B0000E6E0E50030DF3CF0FF0F4CF10F022EEBA
:1008C000DEF0DECF11F0DDCF12F00F501124136EE9
:1008D00010501220146E090E1324D96E000E14202D
:1008E000DA6EFDCFDEFFFECFDEFFFFCFDEFF22EEB2
:1008F000DEF010EE69F0DE50E126DD50E222E72A5C
:100900000600FC50D8A487EF04F089EF04F04FEF05
:1009100004F022EEDEF010EE03F0DE50E126DD50B2
:10092000E222E76AAAEC06F00CC0DEF20DC0DFF2AC
:1009300022EEDEF010EE03F0DE50E126DD50E22282
:10094000E750D8A4A6EF04F0A8EF04F038EF05F0C4
:1009500022EEDEF010EE06F0DE50E126DD50E2225F
:10096000E750E06E22EEDEF010EE08F0DE50E126F9
:10097000DD50E222E750D86E22EEDEF010EE07F0F6
:10098000DE50E126DD50E222E7500E6E0E50FC6A8A
:1009900022EEDEF010EE69F0DE50E126DD50E222BC
:1009A000E750D8A4D6EF04F0D8EF04F0ECEF04F051
:1009B000050022EEDEF010EE01F0DE50E126DD5003
:1009C000E222E6CF0EF0E5CF0FF00EC0FDFF0FC024
:1009D000FEFFFF6A2EEF05F0050022EEDEF010EEBE
:1009E00069F0DE50E126DD50E222E70622EEDEF07D
:1009F00010EE69F0DE50E126DD50E222E7500E6E87
:100A00000E50030DF3CF0FF0F4CF10F022EEDEF016
:100A1000DECF11F0DDCF12F00F501124136E105005
:100A20001220146E090E1324D96E000E1420DA6EF3
:100A3000DECFFDFFDECFFEFFDDCFFFFF22EEDEF0DB
:100A400010EE69F0DE50E126DD50E222E750D8A436
:100A50002CEF05F02EEF05F0ECEF04F022EEDEF0C7
:100A600010EE03F0DE50E126DD50E222010EE76ECB
:100A70001AC0F4FF19C0F3FF18C0DAFF17C0D9FF7E
:100A800016C0E2FF15C0E1FF1B92110022EEDEF05E
:100A900010EE01F0DE50E126DD50E222E6CF01F05B
:100AA000E5CF02F0ADEC05F0096E09500B240B6E9A
:100AB00075EF05F00B506A0DCE0EF324D96E000EC3
:100AC000F420DA6EDF50D8A468EF05F06AEF05F085
:100AD00074EF05F00B506A0DCB0EF324066E000E7A
:100AE000F420076EACEF05F00B2A22EEDDF0DE50AD
:100AF0000B5CD8A07EEF05F080EF05F05AEF05F013
:100B0000010E0A6E9FEF05F00A506A0DCE0EF32417
:100B1000D96E000EF420DA6EDF50D8A492EF05F003
:100B200094EF05F09EEF05F00A506A0DCB0EF3240A
:100B3000066E000EF420076EACEF05F00A2A09508D
:100B40000A5CD8A0A6EF05F0A8EF05F084EF05F049
:100B5000CB0E066E000E076E1200056AC8EF05F098
:100B600005506A0DCC0EF324D96E000EF420DA6E17
:100B70000150DE1807E10250DE18D8A4C2EF05F0DC
:100B8000C4EF05F0C7EF05F00550D4EF05F0052AD6
:100B900022EEDDF0DE50055CD8A0D1EF05F0D3EFFA
:100BA00005F0B0EF05F0000E12000001606F60C0AC
:100BB00061F008C062F009C063F00AC065F000018E
:100BC000646B676B696B686BCA6B20EE61F0DDC2AA
:100BD0000BF00B506A0DCB0EF324E16E000EF420E7
:100BE000E26E690EDBCFE3FFE806FCE2DDC2E8FF60
:100BF000010FE8CFDDF212005FEC06F0E40E086EA4
:100C00000C0E096E050E0A6E640ED5EC05F0960EFC
:100C1000086E0C0E096E050E0A6E650ED5EC05F019
:100C20006C0E086E0C0E096E050E0A6E660ED5EC83
:100C300005F0A2EC06F01BEF06F007EF00F095962A
:100C400083B625EF06F028EF06F0010E29EF06F037
:100C5000000EFF0A016E0146014601468C50011844
:100C6000F70B01188C6E20EF06F0120083B43BEFF7
:100C700006F03EEF06F0010E3FEF06F0000EFF0A11
:100C8000076E074607468C500718FB0B07188C6E3B
:100C900036EF06F0120083B250EF06F053EF06F085
:100CA000010E54EF06F0000EFF0A066E06468C5049
:100CB0000618FD0B06188C6E4BEF06F01200000EA6
:100CC000E8CFDDF2000EE8CFDEF2000EE8CFDFF273
:100CD0003E0E086E0C0E096E010E0A6E000ED5EC6B
:100CE00005F0120083B077EF06F07AEF06F0010E00
:100CF0007BEF06F0000EFF0A056E8C500518FE0B08
:100D000005188C6E72EF06F0120000EECBF012EEBA
:100D100015F0EE6AE550E150FCE1E250FAE11B907B
:100D20001B920001FCEF05F0D59AD596D550F80B33
:100D30000609D56E000ED76E800ED66EF28AF2943A
:100D4000D58E1200B5EC06F0B1EC06F094EC06F08E
:100D5000F28E120046EC05F006C00CF007C00DF054
:0E0D600012009594959295901200F28C12005C
:00000001FF
