:0400000007EF00F016
:0A0008001A8201ED04F078EF07F012
:1008000000000600E1CF14F0E2CF15F0D9CF16F0CA
:10081000DACF17F0F3CF18F0F4CF19F0F29EF2A46C
:1008200014EF04F016EF04F037EF05F0F29466ECE5
:1008300006F022EEDEF010EE03F0DE50E126DD5091
:10084000E222E604D8A427EF04F029EF04F095EFA4
:1008500004F022EEDEF010EE06F0DE50E126DD5070
:10086000E222E0CFE7FF22EEDEF010EE08F0DE50ED
:10087000E126DD50E222D8CFE7FF22EEDEF010EED7
:1008800007F0DE50E126DD50E222E8CFE7FF22EE5E
:10089000DEF010EE69F0DE50E126DD50E222E76A7C
:1008A00084EF04F022EEDEF010EE69F0DE50E12677
:1008B000DD50E222E7500D6E0D50030DF3CF0EF028
:1008C000F4CF0FF022EEDEF0DECF10F0DDCF11F02E
:1008D0000E501024126E0F501120136E090E1224A8
:1008E000D96E000E1320DA6EFDCFDEFFFECFDEFFE5
:1008F000FFCFDEFF22EEDEF010EE69F0DE50E126E3
:10090000DD50E222E72A0600FC50D8A48AEF04F06A
:100910008CEF04F052EF04F022EEDEF010EE03F064
:10092000DE50E126DD50E222E76ACDEC07F022EE50
:10093000DEF010EE03F0DE50E126DD50E222E7505B
:10094000D8A4A5EF04F0A7EF04F037EF05F022EEEE
:10095000DEF010EE06F0DE50E126DD50E222E75038
:10096000E06E22EEDEF010EE08F0DE50E126DD5003
:10097000E222E750D86E22EEDEF010EE07F0DE50F5
:10098000E126DD50E222E7500D6E0D50FC6A22EEAA
:10099000DEF010EE69F0DE50E126DD50E222E75095
:1009A000D8A4D5EF04F0D7EF04F0EBEF04F0050086
:1009B00022EEDEF010EE01F0DE50E126DD50E22204
:1009C000E6CF0DF0E5CF0EF00DC0FDFF0EC0FEFF2F
:1009D000FF6A2DEF05F0050022EEDEF010EE69F063
:1009E000DE50E126DD50E222E70622EEDEF010EED8
:1009F00069F0DE50E126DD50E222E7500D6E0D5029
:100A0000030DF3CF0EF0F4CF0FF022EEDEF0DECFC9
:100A100010F0DDCF11F00E501024126E0F50112087
:100A2000136E090E1224D96E000E1320DA6EDECF7B
:100A3000FDFFDECFFEFFDDCFFFFF22EEDEF010EE8A
:100A400069F0DE50E126DD50E222E750D8A42BEF1A
:100A500005F02DEF05F0EBEF04F022EEDEF010EEE6
:100A600003F0DE50E126DD50E222010EE76EF28E49
:100A700019C0F4FF18C0F3FF17C0DAFF16C0D9FF82
:100A800015C0E2FF14C0E1FF1A92110022EEDEF061
:100A900010EE01F0DE50E126DD50E222E6CF01F05B
:100AA000E5CF02F0DCEC06F00C6E0B6A010E0C24B4
:100AB000016E026A000E0222DDC209F00950036EC7
:100AC000046A0FEC06F001500C6E0C506A0DCC0E4F
:100AD000F324D96E000EF420DA6E560EDE1807E10C
:100AE0000E0EDE18D8A477EF05F079EF05F088EF49
:100AF00005F00B2A010E0B6480EF05F082EF05F084
:100B000088EF05F0CB0E076E000E086EB4EF05F00F
:100B10000C506A0DCE0EF324D96E000EF420DA6E5E
:100B2000DF50D8A496EF05F098EF05F056EF05F0EA
:100B30000C506A0DCC0EF324D96E000EF420DA6E40
:100B4000560EDE1809E10E0EDE18D8B4AAEF05F035
:100B5000ACEF05F056EF05F00C506A0DCB0EF32408
:100B6000076E000EF420086E1200000E026E010ED9
:100B7000016ED4EC07F083B0C0EF05F0C3EF05F0D1
:100B8000010EC4EF05F0000EFF0A036E8C5003182F
:100B9000FE0B03188C6EA4EC07F001C004F002C039
:100BA00005F005BEDCEF05F0055008E10404D8A00F
:100BB000DCEF05F0DEEF05F0F0EF05F005BEECEF41
:100BC00005F0F40E045C010E0558D8B0EAEF05F00C
:100BD000ECEF05F0F0EF05F08B808B92BBEF05F0AA
:100BE00005BEFCEF05F0F40E045C010E0558D8A01C
:100BF000FCEF05F0FEEF05F0BBEF05F005BE0AEFD8
:100C000006F0040E055CD8B008EF06F00AEF06F017
:100C1000BBEF05F08B828B90BBEF05F01200066AEC
:100C200002BE17EF06F015EF06F01DEF06F0016C9F
:100C3000021ED8B0022A010E066E04BE24EF06F092
:100C400022EF06F028EF06F0036C041ED8B0042A49
:100C500003500410D8B42FEF06F031EF06F055EF33
:100C600006F0010E056E39EF06F0D8900336043613
:100C7000052A04AE3EEF06F040EF06F035EF06F031
:100C80000350015C04500258D8A049EF06F04BEF26
:100C900006F04FEF06F00350015E0450025AD89060
:100CA00004320332052E40EF06F00650D8B45BEF55
:100CB00006F05DEF06F061EF06F0016C021ED8B0A1
:100CC000022A01C001F002C002F01200010E026E01
:100CD0009EEF06F002506A0DCE0EF324D96E000E80
:100CE000F420DA6E020EDE18D8A479EF06F07BEF5E
:100CF00006F09DEF06F002506A0DD00EF324D96E77
:100D0000000EF420DA6EDF0602506A0DD00EF324D6
:100D1000D96E000EF420DA6EDF50D8A492EF06F000
:100D200094EF06F09DEF06F002506A0DCE0EF3240C
:100D3000D96E000EF420DA6EDF6A022A22EEDDF0B0
:100D4000DE50025CD8A0A7EF06F0A9EF06F06AEF2C
:100D500006F01200E00E066E020E076E010E096E1E
:100D60000868095009E1800E085CD8A0BAEF06F0C7
:100D7000BCEF06F0CEEF06F006C0D9FF07C0DAFFE1
:100D80007F0EDF6E7F0E0626000E0722810E0824DE
:100D9000086EFF0E0920096EB1EF06F006C0D9FFFC
:100DA00007C0DAFF08C0DFFF08500624D96E0950DB
:100DB0000720DA6EDF6A1200056AF7EF06F00550C9
:100DC0006A0DCC0EF324D96E000EF420DA6E0150B9
:100DD000DE1807E10250DE18D8A4F1EF06F0F3EFB9
:100DE00006F0F6EF06F0055003EF07F0052A22EEB5
:100DF000DDF0DE50055CD8A000EF07F002EF07F051
:100E0000DFEF06F0000E12000001606F60C061F0BD
:100E100006C062F007C063F008C065F00001646BB3
:100E2000676B696B686BCA6B20EE61F0DDC209F01D
:100E300009506A0DCB0EF324E16E000EF420E26E31
:100E4000690EDBCFE3FFE806FCE2DDC2E8FF010F3D
:100E5000E8CFDDF21200959683B631EF07F034EF5C
:100E600007F0010E35EF07F0000EFF0A016E014694
:100E7000014601468C500118F70B01188C6E2CEFBF
:100E800007F01200000EE8CFDDF2000EE8CFDEF230
:100E9000000EE8CFDFF2560E066E0E0E076E010E44
:100EA000086E000E04EC07F01200086E08C007F090
:100EB000074607460746C0500718C70B0718C06EFD
:100EC000C0500618F80B0618C06EC08E120042EC17
:100ED00007F06A0E066E0B0E076E050E086E640EA6
:100EE00004EC07F0BCEC07F074EF07F007EF00F03C
:100EF00000EECBF014EE15F0EE6AE550E150FCE1A7
:100F0000E250FAE11A901A92000167EF07F0000E22
:100F1000B1EC07F00E0EC6EC07F0040E066E050EDF
:100F200055EC07F09492949095901200D59AD5962E
:100F3000D550F80B0609D56E000ED76E800ED66E12
:100F4000F28AF294D58E1200C282C2B2AAEF07F0E2
:100F5000ACEF07F0A5EF07F0C3CF01F0C4CF02F06C
:100F60001200076E07C006F006460646C250061875
:100F7000C30B0618C26E1200DAEC07F0AAEC06F0FA
:100F800087EC07F096EC07F0F28E1200066EC15067
:100F90000618F00B0618C16E120046EC05F007C0EB
:100FA000DEF208C0DFF2120001B002D0C29001D020
:080FB000C2801200F28C120055
:00000001FF
