:0400000007EF00F016
:0A0008001A8266ED05F039EF0DF0E5
:100800000000F29E01015751D96EDA6ADE06000E31
:10081000DD5A5751D96EDA6A010EDBBE14EF04F0CF
:1008200012EF04F064EF05F024EE7EF05751E16E14
:10083000E26A0C0EE126E750020D5751F324E16EF7
:10084000E26A020EE126DECFE6FFDDCFE5FF57517B
:10085000D96EDA6A0C0ED9265751E16EE26A0C0E97
:10086000E126E750586F010E58254B6F4C6B000E78
:100870004C23000E4E6F050E4D6F12EC0AF0010175
:100880004B51DF6E24EE7EF010EE03F0DE50E126D9
:10089000DD50E222E604D8A450EF04F052EF04F059
:1008A000C0EF04F024EE7EF010EE06F0DE50E126FC
:1008B000DD50E222E0CFE7FF24EE7EF010EE08F0FC
:1008C000DE50E126DD50E222D8CFE7FF24EE7EF0B5
:1008D00010EE07F0DE50E126DD50E222E8CFE7FF20
:1008E00024EE7EF010EE69F0DE50E126DD50E222CB
:1008F000E76AAEEF04F024EE7EF010EE69F0DE5011
:10090000E126DD50E222E7500101586F5851030DF6
:10091000F3CF59F1F4CF5AF124EE7EF0DECF5BF144
:10092000DDCF5CF159515B255D6F5A515C215E6FE3
:10093000090E5D25D96E000E5E21DA6EFDCFDEFF59
:10094000FECFDEFFFFCFDEFF24EE7EF010EE69F07B
:10095000DE50E126DD50E222E72A0600FC50D8A452
:10096000B4EF04F0B6EF04F07BEF04F024EE7EF079
:1009700010EE03F0DE50E126DD50E222030EE76EBA
:1009800085EC0DF024EE7EF010EE03F0DE50E12653
:10099000DD50E222E750D8A4D0EF04F0D2EF04F00B
:1009A00064EF05F024EE7EF010EE06F0DE50E12656
:1009B000DD50E222E750E06E24EE7EF010EE08F00B
:1009C000DE50E126DD50E222E750D86E24EE7EF0C4
:1009D00010EE07F0DE50E126DD50E222E750010183
:1009E000586F5851FC6A24EE7EF010EE69F0DE502C
:1009F000E126DD50E222E750D8A401EF05F003EF35
:100A000005F017EF05F0050024EE7EF010EE01F082
:100A1000DE50E126DD50E222E6CF58F1E5CF59F174
:100A200058C1FDFF59C1FEFFFF6A5AEF05F00500EE
:100A300024EE7EF010EE69F0DE50E126DD50E22279
:100A4000E70624EE7EF010EE69F0DE50E126DD5080
:100A5000E222E7500101586F5851030DF3CF59F1CD
:100A6000F4CF5AF124EE7EF0DECF5BF1DDCF5CF106
:100A700059515B255D6F5A515C215E6F090E5D25F2
:100A8000D96E000E5E21DA6EDECFFDFFDECFFEFFF7
:100A9000DDCFFFFF24EE7EF010EE69F0DE50E126A0
:100AA000DD50E222E750D8A458EF05F05AEF05F0E8
:100AB00017EF05F024EE7EF010EE03F0DE50E12695
:100AC000DD50E222010EE76EF28E12000600E1CF49
:100AD00014F0E2CF15F0D9CF16F0DACF17F0F3CF3C
:100AE00018F0F4CF19F0F29EF2A479EF05F07BEF45
:100AF00005F09CEF06F0F2940CEC0BF024EE7EF087
:100B000010EE03F0DE50E126DD50E222E604D8A428
:100B10008CEF05F08EEF05F0FAEF05F024EE7EF095
:100B200010EE06F0DE50E126DD50E222E0CFE7FFD6
:100B300024EE7EF010EE08F0DE50E126DD50E222D9
:100B4000D8CFE7FF24EE7EF010EE07F0DE50E1266E
:100B5000DD50E222E8CFE7FF24EE7EF010EE69F0F0
:100B6000DE50E126DD50E222E76AE9EF05F024EEEF
:100B70007EF010EE69F0DE50E126DD50E222E75013
:100B80000D6E0D50030DF3CF0EF0F4CF0FF024EEE9
:100B90007EF0DECF10F0DDCF11F00E501024126E7B
:100BA0000F501120136E090E1224D96E000E13205F
:100BB000DA6EFDCFDEFFFECFDEFFFFCFDEFF24EEDD
:100BC0007EF010EE69F0DE50E126DD50E222E72AE9
:100BD0000600FC50D8A4EFEF05F0F1EF05F0B7EFF9
:100BE00005F024EE7EF010EE03F0DE50E126DD503D
:100BF000E222E76A95EC0DF024EE7EF010EE03F0B1
:100C0000DE50E126DD50E222E750D8A40AEF06F0DC
:100C10000CEF06F09CEF06F024EE7EF010EE06F0EE
:100C2000DE50E126DD50E222E750E06E24EE7EF059
:100C300010EE08F0DE50E126DD50E222E750D86EDB
:100C400024EE7EF010EE07F0DE50E126DD50E222C9
:100C5000E7500D6E0D50FC6A24EE7EF010EE69F048
:100C6000DE50E126DD50E222E750D8A43AEF06F04C
:100C70003CEF06F050EF06F0050024EE7EF010EE9B
:100C800001F0DE50E126DD50E222E6CF0DF0E5CFA7
:100C90000EF00DC0FDFF0EC0FEFFFF6A92EF06F0E2
:100CA000050024EE7EF010EE69F0DE50E126DD5006
:100CB000E222E70624EE7EF010EE69F0DE50E12637
:100CC000DD50E222E7500D6E0D50030DF3CF0EF014
:100CD000F4CF0FF024EE7EF0DECF10F0DDCF11F078
:100CE0000E501024126E0F501120136E090E122494
:100CF000D96E000E1320DA6EDECFFDFFDECFFEFFD1
:100D0000DDCFFFFF24EE7EF010EE69F0DE50E1262D
:100D1000DD50E222E750D8A490EF06F092EF06F003
:100D200050EF06F024EE7EF010EE03F0DE50E126E8
:100D3000DD50E222010EE76EF28E19C0F4FF18C0FA
:100D4000F3FF17C0DAFF16C0D9FF15C0E2FF14C0C9
:100D5000E1FF1A9211000D6EF29E24EE7EF010EE6D
:100D600005F0DE50E126DD50E2220DC0E7FF24EE63
:100D70007EF010EE03F0DE50E126DD50E222E604C4
:100D8000D8A4C5EF06F0C7EF06F035EF07F024EE64
:100D90007EF010EE06F0DE50E126DD50E222E0CFDC
:100DA000E7FF24EE7EF010EE08F0DE50E126DD5085
:100DB000E222D8CFE7FF24EE7EF010EE07F0DE50FF
:100DC000E126DD50E222E8CFE7FF24EE7EF010EED0
:100DD00069F0DE50E126DD50E222E76A23EF07F0FA
:100DE00024EE7EF010EE69F0DE50E126DD50E222C6
:100DF000E75000018A6F8A51030DF3CF8BF0F4CFD7
:100E00008CF024EE7EF0DECF8DF0DDCF8EF08B51B6
:100E10008D258F6F8C518E21906F090E8F25D96E85
:100E2000000E9021DA6EFDCFDEFFFECFDEFFFFCF9A
:100E3000DEFF24EE7EF010EE69F0DE50E126DD509C
:100E4000E222E72A0600FC50D8A429EF07F02BEF96
:100E500007F0F0EF06F024EE7EF010EE03F0DE5027
:100E6000E126DD50E222020EE76E85EC0DF024EE65
:100E70007EF010EE03F0DE50E126DD50E222E75076
:100E8000D8A445EF07F047EF07F0D9EF07F024EEBD
:100E90007EF010EE06F0DE50E126DD50E222E75053
:100EA000E06E24EE7EF010EE08F0DE50E126DD501C
:100EB000E222E750D86E24EE7EF010EE07F0DE500E
:100EC000E126DD50E222E75000018A6F8A51FC6A78
:100ED00024EE7EF010EE69F0DE50E126DD50E222D5
:100EE000E750D8A476EF07F078EF07F08CEF07F023
:100EF000050024EE7EF010EE01F0DE50E126DD501C
:100F0000E222E6CF8AF0E5CF8BF08AC0FDFF8BC0EE
:100F1000FEFFFF6ACFEF07F0050024EE7EF010EE33
:100F200069F0DE50E126DD50E222E70624EE7EF095
:100F300010EE69F0DE50E126DD50E222E7500001BC
:100F40008A6F8A51030DF3CF8BF0F4CF8CF024EE2F
:100F50007EF0DECF8DF0DDCF8EF08B518D258F6F43
:100F60008C518E21906F090E8F25D96E000E902125
:100F7000DA6EDECFFDFFDECFFEFFDDCFFFFF24EE1A
:100F80007EF010EE69F0DE50E126DD50E222E750FF
:100F9000D8A4CDEF07F0CFEF07F08CEF07F024EEE9
:100FA0007EF010EE03F0DE50E126DD50E222010E6D
:100FB000E76EF28E12000001906F7E0E00019065C8
:100FC000E4EF07F0E6EF07F0ECEF07F0000E8A6FB2
:100FD000000E8B6F6DEF08F0800E916F040E926F14
:100FE00091C0D9FF92C0DAFFDF5000018F6F8F519F
:100FF0007F0B156E15048E6F8F51D8A402EF08F089
:1010000004EF08F006EF08F0E6EF07F08FBF0BEFF4
:1010100008F00DEF08F024EF08F090518E5DD8B085
:1010200014EF08F016EF08F030EF08F091C00DF063
:1010300092C00EF04EEC09F00009D8A422EF08F09F
:1010400024EF08F06BEF08F000018F517F0B156E55
:101050001550010DF3509127F4509223F0EF07F053
:101060008E519019D8A437EF08F039EF08F046EF09
:1010700008F091C0D9FF92C0DAFFDF8E010E9125F2
:101080008A6F000E92218B6F6DEF08F09051810FE7
:1010900091C0D9FF92C0DAFFDF6E010E91258C6FEF
:1010A000000E92218D6F9051156E166A010E152655
:1010B000000E1622155091271650922390518E5DE6
:1010C00091C0D9FF92C0DAFFDF6E8CC08AF08DC06C
:1010D0008BF06DEF08F0F0EF07F0120024EE7EF0D9
:1010E00010EE01F0DE50E126DD50E222E6CF4BF1BA
:1010F000E5CF4CF13AEC0CF00101566F556B010E47
:1011000056254B6F4C6B000E4C237DC453F153514D
:101110004D6F4E6B12EC0AF001014B51566F565158
:101120006A0D6C0EF324D96E020EF420DA6E180EDE
:10113000DE1807E11A0EDE18D8A4A1EF08F0A3EF1D
:1011400008F0B2EF08F0552B010E5565AAEF08F034
:10115000ACEF08F0B2EF08F06B0E516F020E526F59
:10116000DEEF08F056516A0D6E0EF324D96E020EB2
:10117000F420DA6EDF50D8A4C0EF08F0C2EF08F018
:101180007FEF08F056516A0D6C0EF324D96E020EF3
:10119000F420DA6E180EDE1809E11A0EDE18D8B443
:1011A000D4EF08F0D6EF08F07FEF08F056516A0D43
:1011B0006B0EF324516F020EF420526F120024EED6
:1011C0007EF010EE01F0DE50E126DD50E222E6CFA7
:1011D00001F0E5CF02F08BEC0CF00C6E0B6A010E07
:1011E0000C24016E026A000E02227DC409F009502F
:1011F000036E046A6AEC0AF001500C6E0C506A0D22
:101200006C0EF324D96E020EF420DA6E180EDE187E
:1012100007E11A0EDE18D8A410EF09F012EF09F05A
:1012200021EF09F00B2A010E0B6419EF09F01BEFF7
:1012300009F021EF09F06B0E076E020E086E4DEFFC
:1012400009F00C506A0D6E0EF324D96E020EF420D4
:10125000DA6EDF50D8A42FEF09F031EF09F0EFEF8D
:1012600008F00C506A0D6C0EF324D96E020EF420B7
:10127000DA6E180EDE1809E11A0EDE18D8B443EF44
:1012800009F045EF09F0EFEF08F00C506A0D6B0E16
:10129000F324076E020EF420086E12000DC0D9FF71
:1012A0000EC0DAFFDF500F6E0F500D24116E000ECE
:1012B0000E20126E0DC0D9FF0EC0DAFFDF50136E84
:1012C00011C0D9FF12C0DAFFDF50146E1450D8A439
:1012D0006CEF09F06EEF09F071EF09F0000EB9EF55
:1012E00009F013BE76EF09F078EF09F06EEF09F020
:1012F00014AE7DEF09F07FEF09F081EF09F06EEF9A
:1013000009F013507F0B7F0AD8A489EF09F08BEF07
:1013100009F08DEF09F06EEF09F013501424106EF0
:101320007F0E106496EF09F098EF09F0B2EF09F024
:101330000DC0D9FF0EC0DAFF7F0EDF6E7F0E0D26C7
:10134000000E0E221450010DF3501126F4501222FB
:101350000D50115C0DC0D9FF0EC0DAFFDF6E7F0E9D
:10136000B9EF09F00DC0D9FF0EC0DAFF10C0DFFFE2
:10137000DF501200030EDBEC07F08AC049F18BC08E
:101380004AF149C1D9FF4AC1DAFF610EDF6E01019E
:1013900020EE01F04951D9264A51DA22620EDF6E61
:1013A00020EE02F04951D9264A51DA22630EDF6E4F
:1013B000000E486F000E476F83B0E1EF09F0E4EFD5
:1013C00009F0010EE5EF09F0000EFF0A176E8C50D0
:1013D0001718FE0B17188C6E600E00018A6F010142
:1013E00047514925D96E48514A21DA6EDF50000134
:1013F0008B6F93EC0BF0010E010147254B6F000E34
:1014000048214C6F000E4E6F030E4D6F12EC0AF028
:101410004BC147F14CC148F1320EABEC06F0DCEFAA
:1014200009F012000101506B4CBF1BEF0AF019EFDD
:101430000AF021EF0AF04B6D4C1FD8B04C2B010E77
:10144000506F4EBF28EF0AF026EF0AF02CEF0AF09B
:101450004D6D4E1FD8B04E2B4D514E11D8B433EFB9
:101460000AF035EF0AF059EF0AF0010E4F6F3DEF29
:101470000AF0D8904D374E374F2B4EAF42EF0AF05F
:1014800044EF0AF039EF0AF04D514B5D4E514C5983
:10149000D8A04DEF0AF04FEF0AF053EF0AF04D518C
:1014A0004B5F4E514C5BD8904E334D334F2F44EF32
:1014B0000AF05051D8B45FEF0AF061EF0AF065EF1F
:1014C0000AF04B6D4C1FD8B04C2B4BC14BF14CC1AB
:1014D0004CF11200066A02BE72EF0AF070EF0AF0D9
:1014E00078EF0AF0016C021ED8B0022A010E066ED7
:1014F00004BE7FEF0AF07DEF0AF083EF0AF0036C81
:10150000041ED8B0042A03500410D8B48AEF0AF09D
:101510008CEF0AF0B0EF0AF0010E056E94EF0AF0BE
:10152000D89003360436052A04AE99EF0AF09BEFF3
:101530000AF090EF0AF00350015C04500258D8A062
:10154000A4EF0AF0A6EF0AF0AAEF0AF00350015E3A
:101550000450025AD89004320332052E9BEF0AF051
:101560000650D8B4B6EF0AF0B8EF0AF0BCEF0AF0B4
:10157000016C021ED8B0022A01C001F002C002F0C4
:101580001200F29E01015151D96EDA6ADE2A000E74
:10159000DD225151D96EDA6A010EDBBEDBEF0AF0B3
:1015A000010EDB5006E1DE04D8B0D9EF0AF0DBEF24
:1015B0000AF00AEF0BF05151D96EDA6A0D0ED926F6
:1015C000DF50020D5151F324D96EDA6A020ED9268A
:1015D00010EE03F0DE50E126DD50E222E76A5151C1
:1015E000D96EDA6A0D0ED9265151E16EE26A0D0EFE
:1015F000E126E750526F010E52254B6F4C6B000EE7
:101600004C23000E4E6F050E4D6F12EC0AF00101D7
:101610004B51DF6EF28E1200010E026E44EF0BF0A2
:1016200002506A0D6E0EF324D96E020EF420DA6EAB
:10163000020EDE18D8A41FEF0BF021EF0BF043EFE2
:101640000BF002506A0D700EF324D96E020EF420D6
:10165000DA6EDF0602506A0D700EF324D96E020EA8
:10166000F420DA6EDF50D8A438EF0BF03AEF0BF02D
:1016700043EF0BF002506A0D6E0EF324D96E020E8A
:10168000F420DA6EDF6A022A24EE7DF0DE50025C7E
:10169000D8A04DEF0BF04FEF0BF010EF0BF0120056
:1016A00083B255EF0BF058EF0BF0010E59EF0BF032
:1016B000000EFF0A0101636F63478C506319FD0B35
:1016C00063198C6E600E5F6F640E606F010E616F48
:1016D000D0EC0BF0610E01016419D8A472EF0BF08D
:1016E00074EF0BF077EF0BF08B8050EF0BF0620E86
:1016F0006419D8A47EEF0BF080EF0BF083EF0BF0B2
:101700008B8250EF0BF0630E6419D8A48AEF0BF0B4
:101710008CEF0BF090EF0BF08B908B9250EF0BF067
:1017200050EF0BF01200F29E00018A51130F0101DD
:10173000576F01EC04F000018A51D96EDA6A010E8C
:10174000D926DF500D6E8A510D24D96EDA6A020E49
:10175000D9268BC0DFFF8A51D96EDA6A010ED926ED
:101760008A51E16EE26A010EE126E7500D6E010E2C
:101770000D2401014B6F4C6B000E4C23000E4E6F7D
:10178000030E4D6F12EC0AF001014B51DF6E0001A8
:101790008A51050F0101516FC1EC0AF0F28E12005F
:1017A000F29E01015F51050F576F01EC04F001013A
:1017B0005F51D96EDA6ADF50626F5F516225D96E70
:1017C000DA6A020ED92660C1E1FF61C1E2FFDFCF14
:1017D000E7FF5F51D96EDA6A5F51E16EE26AE75066
:1017E000626F010E62254B6F4C6B000E4C23000E96
:1017F0004E6F030E4D6F12EC0AF001014B51DF6E7C
:101800005F51130F516FC1EC0AF0F28E1200800E7F
:101810000101666F040E676F010E696F6869695197
:1018200009E1800E685DD8A018EF0CF01AEF0CF0FB
:101830002CEF0CF066C1D9FF67C1DAFF7F0EDF6EB7
:101840007F0E6627000E6723810E6825686FFF0EE6
:101850006921696F0FEF0CF066C1D9FF67C1DAFF2C
:1018600068C1DFFF68516625D96E69516721DA6E5C
:10187000DF6A120001014F6B56EF0CF04F516A0DF9
:101880006C0EF324D96E020EF420DA6E4B51DE1882
:1018900007E14C51DE18D8A450EF0CF052EF0CF0D9
:1018A00055EF0CF04F5162EF0CF04F2B24EE7DF012
:1018B000DE504F5DD8A05FEF0CF061EF0CF03EEF13
:1018C0000CF0000E12000201006F00C201F266C1AE
:1018D00002F267C103F268C105F20201046B076BF3
:1018E000096B086B6A6B22EE01F07DC469F101019E
:1018F00069516A0D6B0EF324E16E020EF420E26E64
:10190000690EDBCFE3FFE806FCE27DC4E8FF010FD0
:10191000E8CF7DF41200056AA6EF0CF005506A0DC1
:101920006C0EF324D96E020EF420DA6E0150DE182C
:1019300007E10250DE18D8A4A0EF0CF0A2EF0CF0E3
:10194000A5EF0CF00550B2EF0CF0052A24EE7DF067
:10195000DE50055CD8A0AFEF0CF0B1EF0CF08EEFCD
:101960000CF0000E12004EEC0DF0740E0101666FCB
:10197000130E676F050E686F640E63EC0CF0A00E1B
:101980000101666F160E676F050E686F650E63ECDA
:101990000CF0460E0101666F1A0E676F050E686F38
:1019A000660E63EC0CF07BEC0DF0D5EF0CF007EF5E
:1019B00000F001016A51D96EDA6ADF6A6A51D96EA4
:1019C000DA6A010ED926DF6A6A51050F666F000ECA
:1019D000676FF4EC0CF001016A51130F666F030E90
:1019E000676FF4EC0CF0120001016751686F696BCE
:1019F0006651D96EDA6A68C1DEFF69C1DDFF6651E2
:101A0000D96EDA6A0C0ED926DF6A6651D96EDA6AA7
:101A10000D0ED926DF6A1200959683B612EF0DF0EF
:101A200015EF0DF0010E16EF0DF0000EFF0A016E1E
:101A30000146014601468C500118F70B01188C6EC7
:101A40000DEF0DF0120083B428EF0DF02BEF0DF029
:101A5000010E2CEF0DF0000EFF0A0101656F6547C6
:101A600065478C506519FB0B65198C6E23EF0DF0E3
:101A7000120002EE6BF014EE15F0EE6AE550E15044
:101A8000FCE1E250FAE100EE60F0210EEE6AE806B9
:101A9000FDE11A901A920001B3EF0CF0000EE8CFAE
:101AA0007DF4000EE8CF7EF4000EE8CF7FF4180E30
:101AB0000101666F1A0E676F010E686F000E63EC0E
:101AC0000CF01200D59AD596D550F80B0609D56EB4
:101AD000000ED76E800ED66EF28AF294D58E12006A
:101AE00095949592959094929490600E01016A6FEE
:101AF000D9EC0CF012009CEC0DF007EC0CF070EC43
:101B00000DF062EC0DF0F28E12006EEC08F00101A7
:101B100051C17EF452C17FF412002FEEFFF00D5040
:101B2000D9260E50DA22DF9E1200DFEC08F007C043
:0C1B30007EF408C07FF41200F28C12005A
:00000001FF
