:020000040000FA
:0400000006EF00F017
:1000080044ED05F014EE96F0B2EF13F0240EE1265D
:10001800000EE222010EE66EFE0EE124016EFF0ED6
:10002800E220026E01C0E6FF02C0E6FF600EE66E47
:10003800000EE66EF8EC12F0FF0EE304D8A427EFEA
:1000480000F029EF00F005EF02F0FF0EE3CF01F01A
:10005800FA0E01C0E3FF040EE66EFA0EE124016E0B
:10006800FF0EE220026E01C0E6FF02C0E6FF600E4E
:10007800E66E000EE66EF8EC12F0FB0EE124D96E87
:10008800FF0EE220DA6EDECF0BF0DDCF0CF0D89059
:100098000C320B32D8900C320B32F90E0BC0E3FF46
:1000A800FD0EE124D96EFF0EE220DA6EDECF0BF0F2
:1000B800DDCF0CF0D8900C320B32D8900C320B32CA
:1000C800F80E0BC0E3FFF90EE3500B6E0C6AF80E46
:1000D800E3500B5E000E0C5A800E0B26000E0C220D
:1000E800F60E0BC0E3FFF70E0CC0E3FFF90EE3506A
:1000F8000B6E0C6A0B1E0C1E0B4A0C2AF80EE350F2
:100108000B5E000E0C5A800E0B26000E0C22F40E0D
:100118000BC0E3FFF50E0CC0E3FFF90EE3500B6EC6
:100128000C6AF80EE3500B26000E0C22800E0B26EC
:10013800000E0C22F20E0BC0E3FFF30E0CC0E3FF1F
:10014800F80EE3500B6E0C6AF90EE3500B5E000ECE
:100158000C5A800E0B26000E0C22F00E0BC0E3FF8B
:10016800F10E0CC0E3FF25C009F026C00AF027C035
:100178000BF028C00CF0EC0E09C0E3FFED0E0AC02E
:10018800E3FFEE0E0BC0E3FFEF0E0CC0E3FFF70E2C
:10019800E3BED1EF00F0D3EF00F006EF01F0F70E69
:1001A800E3BEE0EF00F0F70EE304D8B0DEEF00F0B6
:1001B800E0EF00F0EEEF00F0F60EE3CF01F0E80E0E
:1001C80001C0E3FFF70EE3CF01F0E90E01C0E3FF42
:1001D800F8EF00F0FF0E0B6E000E0C6EE80E0BC071
:1001E800E3FFE90E0CC0E3FFE80EE3CF01F0EA0EEF
:1001F80001C0E3FFE90EE3CF01F0EB0E01C0E3FF1E
:100208000AEF01F0EA0EE36AEB0EE36AEA0EE3CFC7
:1002180001F0EC0E01C0E3FFF50EE3BE16EF01F0AE
:1002280018EF01F04BEF01F0F50EE3BE25EF01F0FA
:10023800F50EE304D8B023EF01F025EF01F033EF1A
:1002480001F0F40EE3CF01F0E40E01C0E3FFF50E78
:10025800E3CF01F0E50E01C0E3FF3DEF01F0FF0E33
:100268000B6E000E0C6EE40E0BC0E3FFE50E0CC027
:10027800E3FFE40EE3CF01F0E60E01C0E3FFE50E75
:10028800E3CF01F0E70E01C0E3FF4FEF01F0E60E08
:10029800E36AE70EE36AED0EE124D96EFF0EE22071
:1002A800DA6EE60EE3CFDFFFF30EE3BE5EEF01F09A
:1002B80060EF01F093EF01F0F30EE3BE6DEF01F094
:1002C800F30EE304D8B06BEF01F06DEF01F07BEFB4
:1002D80001F0F20EE3CF01F0E00E01C0E3FFF30EF0
:1002E800E3CF01F0E10E01C0E3FF85EF01F0FF0E5F
:1002F8000B6E000E0C6EE00E0BC0E3FFE10E0CC09F
:10030800E3FFE00EE3CF01F0E20E01C0E3FFE10EF0
:10031800E3CF01F0E30E01C0E3FF97EF01F0E20E37
:10032800E36AE30EE36AEE0EE124D96EFF0EE220E3
:10033800DA6EE20EE3CFDFFFF10EE3BEA6EF01F0C7
:10034800A8EF01F0DBEF01F0F10EE3BEB5EF01F02D
:10035800F10EE304D8B0B3EF01F0B5EF01F0C3EF4D
:1003680001F0F00EE3CF01F0DC0E01C0E3FFF10E67
:10037800E3CF01F0DD0E01C0E3FFCDEF01F0FF0E8A
:100388000B6E000E0C6EDC0E0BC0E3FFDD0E0CC016
:10039800E3FFDC0EE3CF01F0DE0E01C0E3FFDD0E6C
:1003A800E3CF01F0DF0E01C0E3FFDFEF01F0DE0E67
:1003B800E36ADF0EE36AEF0EE124D96EFF0EE22056
:1003C800DA6EDE0EE3CFDFFF300EE66E000EE66E6D
:1003D8003AEC02F0E150EC0FD96EE250DA6EFF0E03
:1003E800DA22DECF29F0DECF2AF0DECF2BF0DECF07
:1003F8002CF0300EE66E000EE66E08EC0BF021EFE6
:1004080002F0FF0EE3CF01F0020E0118D8A40FEF9F
:1004180002F011EF02F021EF02F0300EE66E000E4E
:10042800E66E3AEC02F03C0E2C6E2CC02BF02BC082
:100438002AF02AC029F0FDEF01F083B026EF02F080
:1004480029EF02F0010E2AEF02F0000EFF0A0C6EEF
:100458008C500C18FE0B0C188C6EFFEC08F00EEF8D
:1004680000F0DC0EE126FF0EE2221200F29EFE0EE4
:10047800E3CFD9FFFF0EE3CFDAFFDF50D8A447EF71
:1004880002F049EF02F066EF02F0FE0EE3CFD9FF6B
:10049800FF0EE3CFDAFF010EDF6E22EE94F0FE0EC0
:1004A800E3CF0BF0FF0EE3CF0CF0010E0B24E96E47
:1004B800000E0C20EA6EDECFEEFFDDCFEDFFF28EF0
:1004C800C6EF03F022EE94F0FE0EE3CF0BF0FF0E22
:1004D800E3CF0CF00D0E0B24E96E000E0C20EA6E33
:1004E800EF50020DF3CF0BF0F4CF0CF0FE0EE350FB
:1004F8000B26FF0EE3500C22030E0B24E96E000EB0
:100508000C20EA6EDECFEEFFDDCFEDFFFE0EE3CF6F
:100518000BF0FF0EE3CF0CF00D0E0B24D96E000E7E
:100528000C20DA6E050EE66E000EE66EFC0EE3CFCA
:100538000BF0FD0EE3CF0CF00D0E0B24E96E000E50
:100548000C20EA6EEF500B6E0C6A010E0B26000EA3
:100558000C220BC0E6FF0CC0E6FFABEC0CF0015020
:10056800DF6E22EE94F000EE03F0DE50E926DD5057
:10057800EA22EE04D8A4C3EF02F0C5EF02F02BEF95
:1005880003F022EE94F000EE06F0DE50E926DD508E
:10059800EA22E0CFEFFF22EE94F000EE08F0DE5002
:1005A800E926DD50EA22D8CFEFFF22EE94F000EEE4
:1005B80007F0DE50E926DD50EA22E8CFEFFF22EE11
:1005C80094F000EE69F0DE50E926DD50EA22000ED4
:1005D800EF6E19EF03F022EE94F000EE69F0DE50B2
:1005E800E926DD50EA22EF50030D22EE94F0DECF2B
:1005F8000BF0DDCF0CF0F3500B26F4500C22090E53
:100608000B24D96E000E0C20DA6EFDCFDEFFFECF74
:10061800DEFFFFCFDEFF22EE94F000EE69F0DE5041
:10062800E926DD50EA22EF2A0600FC50D8A41FEF85
:1006380003F021EF03F0EFEF02F022EE94F000EE6A
:1006480003F0DE50E926DD50EA22030EEF6EC9EC16
:1006580014F022EE94F000EE03F0DE50E926DD50AF
:10066800EA22EF50D8A43BEF03F03DEF03F0C5EFCB
:1006780003F022EE94F000EE06F0DE50E926DD509D
:10068800EA22EF50E06E22EE94F000EE08F0DE5021
:10069800E926DD50EA22EF50D86E22EE94F000EE03
:1006A80007F0DE50E926DD50EA22EF500C6E0C50C0
:1006B800FC6A22EE94F000EE69F0DE50E926DD5087
:1006C800EA22EF50D8A46BEF03F06DEF03F081EF4F
:1006D80003F0050022EE94F000EE01F0DE50E9266A
:1006E800DD50EA22EECF0BF0EDCF0CF00BC0FDFF92
:1006F8000CC0FEFFFF6ABBEF03F0050022EE94F08A
:1007080000EE69F0DE50E926DD50EA22EF0622EE1F
:1007180094F000EE69F0DE50E926DD50EA22EF5051
:10072800030D22EE94F0DECF0BF0DDCF0CF0F3508A
:100738000B26F4500C22090E0B24D96E000E0C2047
:10074800DA6EDECFFDFFDECFFEFFDDCFFFFF22EE4C
:1007580094F000EE69F0DE50E926DD50EA22EF5011
:10076800D8A4B9EF03F0BBEF03F081EF03F022EE5A
:1007780094F000EE03F0DE50E926DD50EA22010E87
:10078800EF6EF28EE552E5521200F29EFE0EE3CFB6
:10079800D9FFFF0EE3CFDAFFDE06000EDD5AFE0EAC
:1007A800E3CFD9FFFF0EE3CFDAFF010EDBBEE1EFA7
:1007B80003F0DFEF03F040EF05F022EE94F0FE0EB9
:1007C800E3CF0BF0FF0EE3CF0CF00C0E0B24E96E19
:1007D800000E0C20EA6EEF50020DF3CF0BF0F4CFB1
:1007E8000CF0FE0EE3500B26FF0EE3500C22020E17
:1007F8000B24E96E000E0C20EA6EDECFEEFFDDCF93
:10080800EDFFFE0EE3CF0BF0FF0EE3CF0CF00C0E66
:100818000B24D96E000E0C20DA6E050EE66E000E63
:10082800E66EFC0EE3CF0BF0FD0EE3CF0CF00C0EE2
:100838000B24E96E000E0C20EA6EEF500B6E0C6A6A
:10084800010E0B26000E0C220BC0E6FF0CC0E6FFC3
:10085800ABEC0CF00150DF6E22EE94F000EE03F0EA
:10086800DE50E926DD50EA22EE04D8A43EEF04F07B
:1008780040EF04F0A6EF04F022EE94F000EE06F04C
:10088800DE50E926DD50EA22E0CFEFFF22EE94F0B9
:1008980000EE08F0DE50E926DD50EA22D8CFEFFF5F
:1008A80022EE94F000EE07F0DE50E926DD50EA2251
:1008B800E8CFEFFF22EE94F000EE69F0DE50E92673
:1008C800DD50EA22000EEF6E94EF04F022EE94F071
:1008D80000EE69F0DE50E926DD50EA22EF50030D04
:1008E80022EE94F0DECF0BF0DDCF0CF0F3500B26A8
:1008F800F4500C22090E0B24D96E000E0C20DA6E6F
:10090800FDCFDEFFFECFDEFFFFCFDEFF22EE94F04D
:1009180000EE69F0DE50E926DD50EA22EF2A0600F3
:10092800FC50D8A49AEF04F09CEF04F06AEF04F0AE
:1009380022EE94F000EE03F0DE50E926DD50EA22C4
:10094800030EEF6EC9EC14F022EE94F000EE03F003
:10095800DE50E926DD50EA22EF50D8A4B6EF04F0C5
:10096800B8EF04F040EF05F022EE94F000EE06F048
:10097800DE50E926DD50EA22EF50E06E22EE94F0D8
:1009880000EE08F0DE50E926DD50EA22EF50D86E7E
:1009980022EE94F000EE07F0DE50E926DD50EA2260
:1009A800EF500C6E0C50FC6A22EE94F000EE69F0E9
:1009B800DE50E926DD50EA22EF50D8A4E6EF04F035
:1009C800E8EF04F0FCEF04F0050022EE94F000EEEE
:1009D80001F0DE50E926DD50EA22EECF0BF0EDCF34
:1009E8000CF00BC0FDFF0CC0FEFFFF6A36EF05F0F0
:1009F800050022EE94F000EE69F0DE50E926DD50A5
:100A0800EA22EF0622EE94F000EE69F0DE50E926C5
:100A1800DD50EA22EF50030D22EE94F0DECF0BF00A
:100A2800DDCF0CF0F3500B26F4500C22090E0B24EA
:100A3800D96E000E0C20DA6EDECFFDFFDECFFEFF92
:100A4800DDCFFFFF22EE94F000EE69F0DE50E926DC
:100A5800DD50EA22EF50D8A434EF05F036EF05F068
:100A6800FCEF04F022EE94F000EE03F0DE50E926ED
:100A7800DD50EA22010EEF6EF28EE552E5521200C9
:100A88000600FACF41F0FBCF42F0E9CF43F0EACFBE
:100A980044F0E1CF45F0E2CF46F0D9CF47F0DACFC6
:100AA80048F0F3CF49F0F4CF4AF001C04BF002C050
:100AB8004CF009C04DF00AC04EF00BC04FF00CC00E
:100AC80050F016EE4BF0F29EF2A46DEF05F06FEFCA
:100AD80005F084EF06F0F29458EC11F001EC11F0F7
:100AE80022EE94F000EE03F0DE50E926DD50EA2213
:100AF800EE04D8A482EF05F084EF05F0EAEF05F0E4
:100B080022EE94F000EE06F0DE50E926DD50EA22EF
:100B1800E0CFEFFF22EE94F000EE08F0DE50E92679
:100B2800DD50EA22D8CFEFFF22EE94F000EE07F076
:100B3800DE50E926DD50EA22E8CFEFFF22EE94F0FE
:100B480000EE69F0DE50E926DD50EA22000EEF6E75
:100B5800D8EF05F022EE94F000EE69F0DE50E926B9
:100B6800DD50EA22EF50030D22EE94F0DECF3FF085
:100B7800DDCF40F0F3503F26F4504022090E3F24C9
:100B8800D96E000E4020DA6EFDCFDEFFFECFDEFF0D
:100B9800FFCFDEFF22EE94F000EE69F0DE50E9268A
:100BA800DD50EA22EF2A0600FC50D8A4DEEF05F05B
:100BB800E0EF05F0AEEF05F022EE94F000EE03F062
:100BC800DE50E926DD50EA22000EEF6EC9EC14F083
:100BD80022EE94F000EE03F0DE50E926DD50EA2222
:100BE800EF50D8A4FAEF05F0FCEF05F084EF06F01B
:100BF80022EE94F000EE06F0DE50E926DD50EA22FF
:100C0800EF50E06E22EE94F000EE08F0DE50E92698
:100C1800DD50EA22EF50D86E22EE94F000EE07F095
:100C2800DE50E926DD50EA22EF503F6E3F50FC6A65
:100C380022EE94F000EE69F0DE50E926DD50EA225B
:100C4800EF50D8A42AEF06F02CEF06F040EF06F09C
:100C5800050022EE94F000EE01F0DE50E926DD50AA
:100C6800EA22EECF3FF0EDCF40F03FC0FDFF40C09D
:100C7800FEFFFF6A7AEF06F0050022EE94F000EE20
:100C880069F0DE50E926DD50EA22EF0622EE94F004
:100C980000EE69F0DE50E926DD50EA22EF50030D40
:100CA80022EE94F0DECF3FF0DDCF40F0F3503F2648
:100CB800F4504022090E3F24D96E000E4020DA6E0F
:100CC800DECFFDFFDECFFEFFDDCFFFFF22EE94F08B
:100CD80000EE69F0DE50E926DD50EA22EF50D8A494
:100CE80078EF06F07AEF06F040EF06F022EE94F087
:100CF80000EE03F0DE50E926DD50EA22010EEF6E29
:100D0800F2A289EF06F08BEF06F08DEF06F0D9EC32
:100D180013F0F28E50C00CF04FC00BF04EC00AF02A
:100D28004DC009F04CC002F04BC001F04AC0F4FFBE
:100D380049C0F3FF48C0DAFF47C0D9FF46C0E2FF09
:100D480045C0E1FF44C0EAFF43C0E9FF42C0FBFFE2
:100D580041C0FAFF1100060EE126000EE22222EE43
:100D680093F0DF50D8B4BBEF06F0BDEF06F0C8EF44
:100D780006F022EE94F0DE50DE10D8A4C6EF06F09E
:100D8800C8EF06F0CEEF06F0810E016E000E026E7F
:100D9800DBEF07F022EE94F000EE01F0DE50E926DA
:100DA800DD50EA22EECF0BF0EDCF0CF00BC0E6FFE2
:100DB8000CC0E6FF57EC12F0FF0E01C0E3FFFC0E7B
:100DC800E36AFE0EE36AFB0EE36A39EF07F0FB0EF7
:100DD800E3506A0D840EF324D96E000EF420DA6E07
:100DE800DF50D8A4FAEF06F0FCEF06F037EF07F073
:100DF800FB0EE3506A0D820EF324D96E000EF42028
:100E0800DA6E4E0EDE1809E1280EDE18D8B40FEFA0
:100E180007F011EF07F037EF07F0FE0EE36AE32A59
:100E2800FB0EE3506A0D850EF324D96E000EF420F4
:100E3800DA6EFC0EE3CF01F0DE50015CD8B027EF8C
:100E480007F029EF07F037EF07F0FB0EE3506A0DC4
:100E5800850EF324D96E000EF420DA6EDF500C6E86
:100E6800FC0E0CC0E3FFFB0EE32A22EE93F0FB0E10
:100E7800E3CF01F0DE50015CD8A045EF07F047EF63
:100E880007F0EBEF06F0FE0EE350D8A44EEF07F0A4
:100E980050EF07F052EF07F0C8EF06F0FF0EE3CF70
:100EA80001F0FA0E01C0E3FFFD0EE36A22EE93F0B3
:100EB800DF50E66E000EE66EF80EE3500B6E0C6A1D
:100EC800010E0B26000E0C220BC0E6FF0CC0E6FF3D
:100ED800ABEC0CF0FA0E01C0E3FFFA0EE3506A0D1A
:100EE800840EF324D96E000EF420DA6EDF50D8A4F5
:100EF80080EF07F082EF07F0B7EF07F0FA0EE35044
:100F08006A0D850EF324D96E000EF420DA6EFC0EFD
:100F1800E350DE18D8A493EF07F095EF07F0B7EF8A
:100F280007F0FA0EE3506A0D820EF324D96E000E14
:100F3800F420DA6E4E0EDE1809E1280EDE18D8B459
:100F4800A8EF07F0AAEF07F0B7EF07F0FA0EE350A3
:100F58006A0D810E016E000E026EF3500126F450E8
:100F68000222DBEF07F0FA0EE3506A0D820EF3243B
:100F7800D96E000EF420DA6E4E0EDE1807E1280E48
:100F8800DE18D8A4CAEF07F0CCEF07F05AEF07F045
:100F9800FD0EE32AFD0EE3CF01F0010E0164D7EF49
:100FA80007F0D9EF07F05AEF07F0C8EF06F0FA0E8E
:100FB800E126FF0EE2221200F29E22EE94F000EEED
:100FC80005F0DE50E926DD50EA22FF0EE3CFEFFF01
:100FD80022EE94F000EE03F0DE50E926DD50EA221E
:100FE800EE04D8A4FAEF07F0FCEF07F062EF08F080
:100FF80022EE94F000EE06F0DE50E926DD50EA22FB
:10100800E0CFEFFF22EE94F000EE08F0DE50E92684
:10101800DD50EA22D8CFEFFF22EE94F000EE07F081
:10102800DE50E926DD50EA22E8CFEFFF22EE94F009
:1010380000EE69F0DE50E926DD50EA22000EEF6E80
:1010480050EF08F022EE94F000EE69F0DE50E92649
:10105800DD50EA22EF50030D22EE94F0DECF0BF0C4
:10106800DDCF0CF0F3500B26F4500C22090E0B24A4
:10107800D96E000E0C20DA6EFDCFDEFFFECFDEFF4C
:10108800FFCFDEFF22EE94F000EE69F0DE50E92695
:10109800DD50EA22EF2A0600FC50D8A456EF08F0EB
:1010A80058EF08F026EF08F022EE94F000EE03F077
:1010B800DE50E926DD50EA22020EEF6EC9EC14F08C
:1010C80022EE94F000EE03F0DE50E926DD50EA222D
:1010D800EF50D8A472EF08F074EF08F0FCEF08F0B6
:1010E80022EE94F000EE06F0DE50E926DD50EA220A
:1010F800EF50E06E22EE94F000EE08F0DE50E926A4
:10110800DD50EA22EF50D86E22EE94F000EE07F0A0
:10111800DE50E926DD50EA22EF500C6E0C50FC6AD6
:1011280022EE94F000EE69F0DE50E926DD50EA2266
:10113800EF50D8A4A2EF08F0A4EF08F0B8EF08F039
:10114800050022EE94F000EE01F0DE50E926DD50B5
:10115800EA22EECF0BF0EDCF0CF00BC0FDFF0CC078
:10116800FEFFFF6AF2EF08F0050022EE94F000EEB1
:1011780069F0DE50E926DD50EA22EF0622EE94F00F
:1011880000EE69F0DE50E926DD50EA22EF50030D4B
:1011980022EE94F0DECF0BF0DDCF0CF0F3500B26EF
:1011A800F4500C22090E0B24D96E000E0C20DA6EB6
:1011B800DECFFDFFDECFFEFFDDCFFFFF22EE94F096
:1011C80000EE69F0DE50E926DD50EA22EF50D8A49F
:1011D800F0EF08F0F2EF08F0B8EF08F022EE94F024
:1011E80000EE03F0DE50E926DD50EA22010EEF6E34
:1011F800F28EE5521200F29E22EE94F000EE03F019
:10120800DE50E926DD50EA22EE04D8A40EEF09F0FC
:1012180010EF09F076EF09F022EE94F000EE06F0F8
:10122800DE50E926DD50EA22E0CFEFFF22EE94F00F
:1012380000EE08F0DE50E926DD50EA22D8CFEFFFB5
:1012480022EE94F000EE07F0DE50E926DD50EA22A7
:10125800E8CFEFFF22EE94F000EE69F0DE50E926C9
:10126800DD50EA22000EEF6E64EF09F022EE94F0F2
:1012780000EE69F0DE50E926DD50EA22EF50030D5A
:1012880022EE94F0DECF0BF0DDCF0CF0F3500B26FE
:10129800F4500C22090E0B24D96E000E0C20DA6EC5
:1012A800FDCFDEFFFECFDEFFFFCFDEFF22EE94F0A4
:1012B80000EE69F0DE50E926DD50EA22EF2A06004A
:1012C800FC50D8A46AEF09F06CEF09F03AEF09F086
:1012D80022EE94F000EE03F0DE50E926DD50EA221B
:1012E800000EEF6EC9EC14F022EE94F000EE03F05D
:1012F800DE50E926DD50EA22EF50D8A486EF09F047
:1013080088EF09F010EF0AF022EE94F000EE06F0F4
:10131800DE50E926DD50EA22EF50E06E22EE94F02E
:1013280000EE08F0DE50E926DD50EA22EF50D86ED4
:1013380022EE94F000EE07F0DE50E926DD50EA22B6
:10134800EF500C6E0C50FC6A22EE94F000EE69F03F
:10135800DE50E926DD50EA22EF50D8A4B6EF09F0B6
:10136800B8EF09F0CCEF09F0050022EE94F000EE9A
:1013780001F0DE50E926DD50EA22EECF0BF0EDCF8A
:101388000CF00BC0FDFF0CC0FEFFFF6A06EF0AF071
:10139800050022EE94F000EE69F0DE50E926DD50FB
:1013A800EA22EF0622EE94F000EE69F0DE50E9261C
:1013B800DD50EA22EF50030D22EE94F0DECF0BF061
:1013C800DDCF0CF0F3500B26F4500C22090E0B2441
:1013D800D96E000E0C20DA6EDECFFDFFDECFFEFFE9
:1013E800DDCFFFFF22EE94F000EE69F0DE50E92633
:1013F800DD50EA22EF50D8A404EF0AF006EF0AF015
:10140800CCEF09F022EE94F000EE03F0DE50E9266E
:10141800DD50EA22010EEF6EF28E1200060EE12672
:10142800000EE222F90EE3CF01F07E0E01641FEFF9
:101438000AF021EF0AF027EF0AF0000E016E000E05
:10144800026E03EF0BF0020E016EFB0E01C0E3FF0C
:10145800960E016EFA0E01C0E3FFFA0EE3CFD9FF34
:10146800FB0EE3CFDAFFDF500C6EFE0E0CC0E3FF7D
:10147800E150FE0FD96EE250DA6EFF0EDA22DF502D
:101488007F0B0C6EFF0E0C26FF0E0CC0E3FFFE0E4A
:10149800E350D8A452EF0AF054EF0AF056EF0AF0DE
:1014A80021EF0AF0E150FE0FD96EE250DA6EFF0E1E
:1014B800DA22DFBE62EF0AF064EF0AF084EF0AF086
:1014C800E150FF0FD96EE250DA6EFF0EDA22F90E04
:1014D800E350DE5CD8B073EF0AF075EF0AF09BEFCB
:1014E8000AF0FA0EE3CFE6FFE3CFE6FFE1EC0BF0FC
:1014F8000150D8A482EF0AF084EF0AF001EF0BF054
:10150800E150FE0FD96EE250DA6EFF0EDA22DF509C
:101518007F0B010DE150FA0FD96EE250DA6EFF0E23
:10152800DA22F350DE26F450DD2231EF0AF0E150E2
:10153800F90FD96EE250DA6EFF0EDA22FF0EE35091
:10154800DE18D8A4AAEF0AF0ACEF0AF0BEEF0AF052
:10155800FA0EE3CFD9FFFB0EE3CFDAFFDF8EFA0EE8
:10156800E350010F016EFB0EE3CF02F0000E0222E2
:1015780003EF0BF0FA0EE3CFD9FFFB0EE3CFDAFF50
:10158800F90EE350810FDF6EFA0EE350010F0B6E78
:10159800FB0EE3CF0CF0000E0C22FD0E0CC0E3FF97
:1015A800FC0E0BC0E3FFF90EE3500B6E0C6A010E44
:1015B8000B26000E0C22E150FA0FD96EE250DA6EBB
:1015C800FF0EDA220B50DE260C50DD22FA0EE3CF96
:1015D800D9FFFB0EE3CFDAFFF90EE3CF0CF0FF0ED5
:1015E800E3CF0BF00C500B5CDF6EFC0EE3CF01F089
:1015F800FD0EE3CF02F003EF0BF031EF0AF0F90E26
:10160800E126FF0EE2221200E652E652F29E22EE98
:1016180094F0FC0EE3CF0BF0FD0EE3CF0CF0010EBF
:101628000B24E96E000E0C20EA6EDE50EE1809E17C
:10163800DE50EE18D8B423EF0BF025EF0BF028EFAF
:101648000BF0F28EDCEF0BF0FC0EE3CF0BF0FD0E8F
:10165800E3CF0CF00E0E0B24D96E000E0C20DA6EC0
:10166800FC0EE3CF0BF0FD0EE3CF0CF00D0E0B24B8
:10167800E96E000E0C20EA6EDE50EE18D8B447EF83
:101688000BF049EF0BF0C3EF0BF0FC0EE3CF0BF0C0
:10169800FD0EE3CF0CF00E0E0B24D96E000E0C20BD
:1016A800DA6EDF50020DF3CF0BF0F4CF0CF0FC0E26
:1016B800E3500B26FD0EE3500C22030E0B24D96ECB
:1016C800000E0C20DA6EDECF0BF0DDCF0CF0FF0E33
:1016D8000CC0E3FFFE0E0BC0E3FFFC0EE3CF0BF0E4
:1016E800FD0EE3CF0CF00E0E0B24D96E000E0C206D
:1016F800DA6E050EE66E000EE66EFA0EE3CF0BF01C
:10170800FB0EE3CF0CF00E0E0B24E96E000E0C203E
:10171800EA6EEF500B6E0C6A010E0B26000E0C22BF
:101728000BC0E6FF0CC0E6FFABEC0CF00150DF6E1F
:10173800FE0EE3CF0BF0FF0EE3CF0CF0030E0B24ED
:10174800D96E000E0C20DA6E000EDF6EE150FE0F2F
:10175800D96EE250DA6EFF0EDA22FC0EE3CF0BF000
:10176800FD0EE3CF0CF0010E0B24E96E000E0C20E9
:10177800EA6EDECFEEFFDDCFEDFFDBEF0BF0FC0E08
:10178800E3CFD9FFFD0EE3CFDAFF000EDF6EFC0ECC
:10179800E3CF0BF0FD0EE3CF0CF0010E0B24D96E56
:1017A800000E0C20DA6E000EDE6E000EDD6EF28E7C
:1017B800E552E552E552E5521200050EE126000E0B
:1017C800E222F90EE3CFD9FFFA0EE3CFDAFFDF50BA
:1017D8000B6E0C6AF90EE3500B26FA0EE3500C223E
:1017E800FC0E0CC0E3FFFB0E0BC0E3FFF90EE3CFCA
:1017F800D9FFFA0EE3CFDAFFDF500C6EFE0E0CC0F5
:10180800E3FFFB0EE3CFD9FFFC0EE3CFDAFFDF5097
:101818000C6EFD0E0CC0E3FFFD0EE350D8A417EFCD
:101828000CF019EF0CF01DEF0CF0000E016EA6EF96
:101838000CF0E150FE0FD96EE250DA6EFF0EDA229C
:10184800DFBE29EF0CF02BEF0CF019EF0CF0E15094
:10185800FD0FD96EE250DA6EFF0EDA22DFAE37EFF7
:101868000CF039EF0CF03BEF0CF019EF0CF0E150F5
:10187800FE0FD96EE250DA6EFF0EDA22DF507F0BD0
:101888007F0AD8A44AEF0CF04CEF0CF04EEF0CF0A6
:1018980019EF0CF0FD0EE3CF0CF0FE0EE3500C2414
:1018A8000B6EFF0E0BC0E3FFFF0EE3CF01F07F0EC0
:1018B800016461EF0CF063EF0CF09BEF0CF0F90E94
:1018C800E3CFD9FFFA0EE3CFDAFF7F0EDF6EF90E12
:1018D800E3507F0F016EF90E01C0E3FF016AFA0EB3
:1018E800E3500120016EFA0E01C0E3FFFD0EE35044
:1018F800010DE150FB0FD96EE250DA6EFF0EDA22CD
:10190800F350DE26F450DD22F90EE3CFD9FFFA0EAC
:10191800E3CFDAFFF90EE3CF0CF0FB0EE3CF0BF0C9
:101928000C500B5CDF6E7F0E016EA6EF0CF0F90E0B
:10193800E3CFD9FFFA0EE3CFDAFFFF0EE3CFDFFFE5
:10194800DF50016EF90EE126FF0EE2221200E65288
:10195800E652FE0EE36AFD0EE3BEB7EF0CF0B5EFFC
:101968000CF0C0EF0CF0FC0EE36CFD0EE31ED8B0DB
:10197800E32AFE0EE36AE32AFB0EE3BEC8EF0CF08F
:10198800C6EF0CF0CEEF0CF0FA0EE36CFB0EE31E84
:10199800D8B0E32AFA0EE3CF01F0FB0EE3500110B2
:1019A800D8B4D9EF0CF0DBEF0CF036EF0DF0FF0EEA
:1019B800E36AE32AF1EF0CF0FA0EE350D890E8342A
:1019C800016EFA0E01C0E3FFFB0EE350E834016E2E
:1019D800FB0E01C0E3FFFF0EE32AFB0EE3AEF7EFB9
:1019E8000CF0F9EF0CF0E0EF0CF0FA0EE3CF0BF08F
:1019F800FB0EE3CF0CF0FC0EE3CF09F0FD0EE3CFB6
:101A08000AF00B50095C0C500A58D8A00EEF0DF0E4
:101A180010EF0DF022EF0DF0FC0EE350016EFA0E00
:101A2800E350015EFC0E01C0E3FFFD0EE350016EC2
:101A3800FB0EE350015AFD0E01C0E3FFD890FB0EE8
:101A4800E332FA0EE332FF0EE350016E010E015E3F
:101A5800FF0E01C0E3FFD8A434EF0DF036EF0DF010
:101A6800F9EF0CF0FE0EE350D8B43DEF0DF03FEF68
:101A78000DF045EF0DF0FC0EE36CFD0EE31ED8B043
:101A8800E32AFC0EE3CF01F0FD0EE3CF02F0FA0EDD
:101A9800E126FF0EE2221200F29EFE0EE350130F23
:101AA8000B6EFF0EE3CF0CF0000E0C220BC0E6FF0E
:101AB8000CC0E6FFC9EC03F0FE0EE3CF0BF0FF0EFF
:101AC800E3CF0CF0010E0B24D96E000E0C20DA6E59
:101AD800DF500C6EFE0EE3CF09F0FF0EE3CF0AF0E5
:101AE800020E0924D96E000E0A20DA6EDECF09F044
:101AF800DDCF0AF00C500924D96E000E0A20DA6EE8
:101B0800FD0EE3CFDFFFFE0EE3CF0BF0FF0EE3CFBA
:101B18000CF0010E0B24D96E000E0C20DA6EFE0EAE
:101B2800E3CF0BF0FF0EE3CF0CF0040E0B24E96EAD
:101B3800000E0C20EA6EEF50E66E000EE66EFC0E0C
:101B4800E3CF0BF0FD0EE3CF0CF0010E0B24E96E92
:101B5800000E0C20EA6EEF500B6E0C6A010E0B267D
:101B6800000E0C220BC0E6FF0CC0E6FFABEC0CF03D
:101B78000150DF6EFE0EE350050F0B6EFF0EE3CF34
:101B88000CF0000E0C220BC0E6FF0CC0E6FFB5EC13
:101B98000FF0F28EE552E552E5521200E652E65297
:101BA800E652E652300EE66E000EE66E3AEC02F0B1
:101BB80029C009F02AC00AF02BC00BF02CC00CF089
:101BC800FC0E09C0E3FFFD0E0AC0E3FFFE0E0BC0CA
:101BD800E3FFFF0E0CC0E3FF300EE66E000EE66E6C
:101BE80008EC0BF05250D8A4FCEF0DF0FEEF0DF00E
:101BF8001BEF0EF0FF0EE124D96EFF0EE220DA6E25
:101C0800000EDF6EFE0EE124E96EFF0EE220EA6EA2
:101C1800DFCFEFFFFD0EE124D96EFF0EE220DA6E72
:101C2800EFCFDFFFDF500C6EFC0E0CC0E3FFFC0EA5
:101C3800E350E66E000EE66E88EC13F0FD0EE1242C
:101C4800D96EFF0EE220DA6EDF50E66E010EE66E08
:101C580088EC13F0FE0EE124D96EFF0EE220DA6E56
:101C6800DF50E66E020EE66E88EC13F0FF0EE124FC
:101C7800D96EFF0EE220DA6EDF50E66E030EE66ED6
:101C880088EC13F0050EE66EE0EC07F0D6EF0DF0E9
:101C9800E552E552E552E5521200070EE126000E24
:101CA800E2222C0E0B6E010E0C6EFD0E0BC0E3FF34
:101CB800FE0E0CC0E3FFFF0EE36A020EE66EC0ECF8
:101CC80014F0FA0E01C0E3FFFB0E02C0E3FFFD0EA5
:101CD800E3CF0BF0FE0EE3CF0CF0FA0EE3CF09F0E2
:101CE800FB0EE3CF0AF00B50095C0C500A58D8A041
:101CF80080EF0EF084EF0EF00C6A0C2A85EF0EF0E0
:101D08000C6AFC0E0CC0E3FFFC0EE350D8B48FEF56
:101D18000EF091EF0EF0B4EF0EF0FF0EE350D8A4E2
:101D280098EF0EF09AEF0EF0B4EF0EF0F90EE36AAA
:101D3800E382010EE66EF80EE124016EFF0EE2204A
:101D4800026E01C0E6FF02C0E6FF600EE66E000EFE
:101D5800E66EC3EC12F0FF0EE36AE32ABFEF0EF063
:101D6800FC0EE350D8A4BBEF0EF0BDEF0EF0BFEFB2
:101D78000EF0FF0EE36A140EE66EE0EC07F061EF7A
:101D88000EF0F90EE126FF0EE2221200F29EFE0E80
:101D9800E350050F0B6EFF0EE3CF0CF0000E0C2284
:101DA8000BC0E6FF0CC0E6FFC9EC03F0FE0EE3CF64
:101DB800D9FFFF0EE3CFDAFFDF500C6EFE0EE3CF44
:101DC80009F0FF0EE3CF0AF0020E0924D96E000EC7
:101DD8000A20DA6EDECF09F0DDCF0AF00C500924B4
:101DE800D96E000E0A20DA6EFC0EE3CFE9FFFD0E75
:101DF800E3CFEAFFDFCFEFFFFE0EE3CFD9FFFF0E01
:101E0800E3CFDAFFFE0EE3CF0BF0FF0EE3CF0CF0CB
:101E1800040E0B24E96E000E0C20EA6EEF50E66EFD
:101E2800000EE66EFC0EE3CFE9FFFD0EE3CFEAFFFE
:101E3800EF500B6E0C6A010E0B26000E0C220BC025
:101E4800E6FF0CC0E6FFABEC0CF00150DF6EFE0EB7
:101E5800E350130F0B6EFF0EE3CF0CF0000E0C22B5
:101E68000BC0E6FF0CC0E6FFB5EC0FF0F28EE552B2
:101E7800E552E552E5521200FE0EE3CFD9FFFF0E00
:101E8800E3CFDAFF000EDF6EFE0EE3CF0BF0FF0E9E
:101E9800E3CF0CF0010E0B24D96E000E0C20DA6E85
:101EA800000EDF6EFE0EE3CF0BF0FF0EE3CF0CF05B
:101EB800040E0B24D96E000E0C20DA6E030EDF6EB2
:101EC800FE0EE3CF0BF0FF0EE3CF0CF0040E0B2455
:101ED800D96E000E0C20DA6EDF50E66E12EC0AF0B6
:101EE800FE0EE3CF0BF0FF0EE3CF0CF0020E0B2437
:101EF800D96E000E0C20DA6E01C0DEFF02C0DDFFD5
:101F0800000EE66EFD0EE350050F0B6EFE0EE3CFDE
:101F18000CF0000E0C220BC0E6FF0CC0E6FF5AECDA
:101F280013F0FE0EE3CF0BF0FF0EE3CF0CF0040E20
:101F38000B24D96E000E0C20DA6EDF50E66EFD0E13
:101F4800E350130F0B6EFE0EE3CF0CF0000E0C22C5
:101F58000BC0E6FF0CC0E6FF5AEC13F0E552E55261
:101F68001200F29EFE0EE3CFD9FFFF0EE3CFDAFF99
:101F7800DE2A000EDD22FE0EE3CFD9FFFF0EE3CFEF
:101F8800DAFF010EDBBED4EF0FF0010EDB5006E1E5
:101F9800DE04D8B0D2EF0FF0D4EF0FF025EF10F039
:101FA800FE0EE3CF0BF0FF0EE3CF0CF00D0E0B246B
:101FB800D96E000E0C20DA6EDF50020DF3CF0BF055
:101FC800F4CF0CF0FE0EE3500B26FF0EE3500C226C
:101FD800020E0B24D96E000E0C20DA6E00EE03F010
:101FE800DE50E926DD50EA22000EEF6EFE0EE3CF4A
:101FF8000BF0FF0EE3CF0CF00D0E0B24D96E000E84
:102008000C20DA6E050EE66E000EE66EFC0EE3CFCF
:102018000BF0FD0EE3CF0CF00D0E0B24E96E000E55
:102028000C20EA6EEF500B6E0C6A010E0B26000EA8
:102038000C220BC0E6FF0CC0E6FFABEC0CF0015025
:10204800DF6EF28EE552E5521200E652E652E65293
:10205800E652020E016EFF0E01C0E3FF960E016EFE
:10206800FE0E01C0E3FFFF0E0B6E010E0C6EFC0EA0
:102078000BC0E3FFFD0E0CC0E3FFFD0EE3500CE1C7
:10208800FC0EE3CF01F0800E015ED8A04EEF10F0F9
:1020980050EF10F074EF10F0FE0EE3CFD9FFFF0EF3
:1020A800E3CFDAFF7F0EDF6EFE0EE3507F0F016E87
:1020B800FE0E01C0E3FF016AFF0EE3500120016E2E
:1020C800FF0E01C0E3FFE150FC0FD96EE250DA6E5B
:1020D800FF0EDA22810EDE26FF0EDD2241EF10F020
:1020E800FE0EE3CFD9FFFF0EE3CFDAFFFC0EE3CFFE
:1020F800DFFFFC0EE3CF0BF0FD0EE3CF0CF0FE0E7E
:10210800E3CF09F0FF0EE3CF0AF00B500924D96E94
:102118000C500A20DA6E000EDF6EE552E552E552E9
:10212800E55212006A0EE126000EE222950EE3CF78
:1021380001F0960E01C0E3FFE150930FD96EE25013
:10214800DA6EFF0EDA22970EE124E96EFF0EE22026
:10215800EA6EDECFEEFFDDCFEDFF9A0EE124D96EF9
:10216800FF0EE220DA6E920EE3CFDFFF990EE12434
:10217800D96EFF0EE220DA6E000EDF6E9C0EE124AF
:10218800D96EFF0EE220DA6E000EDF6E9E0EE1249D
:10219800D96EFF0EE220DA6E000EDF6E9D0EE1248E
:1021A800D96EFF0EE220DA6E000EDF6EFF0EE1241C
:1021B800D96EFF0EE220DA6E000EDF6E960EE12475
:1021C800D96EFF0EE220DA6E02EE93F0EF506A0D40
:1021D800810EF324E96E000EF420EA6E690EDBCF5F
:1021E800EBFFE806FCE293C2E8FF010FE8CF93F2A9
:1021F800920EE126FF0EE22212002F2A51502F5C88
:10220800D8A009EF11F00BEF11F00CEF11F02F6AC5
:1022180021502F5CD8A013EF11F017EF11F00C6AC2
:102228000C2A18EF11F00C6A0C468C500C18FD0B98
:102238000C188C6E22502F5CD8A025EF11F029EFD6
:1022480011F00C6A0C2A2AEF11F00C6A0C460C46A5
:102258008C500C18FB0B0C188C6E23502F5CD8A0DC
:1022680038EF11F03CEF11F00C6A0C2A3DEF11F039
:102278000C6A0C460C460C468C500C18F70B0C18C4
:102288008C6E24502F5CD8A04CEF11F050EF11F059
:102298000C6A0C2A51EF11F00C6A0C3A8C500C188D
:1022A800EF0B0C188C6E1200E652FF0EE36AE32A5D
:1022B80098EF11F0FF0EE3506A0D840EF324D96EE7
:1022C800000EF420DA6E020EDE18D8A46EEF11F0BC
:1022D80070EF11F096EF11F0FF0EE3506A0D860EC5
:1022E800F324D96E000EF420DA6EDF06FF0EE350F9
:1022F8006A0D860EF324D96E000EF420DA6EDF50D4
:10230800D8A489EF11F08BEF11F096EF11F0FF0EC2
:10231800E3506A0D840EF324D96E000EF420DA6EB1
:10232800000EDF6EFF0EE32A22EE93F0FF0EE3CFDE
:1023380001F0DE50015CD8A0A4EF11F0A6EF11F077
:102348005EEF11F0E5521200050EE126000EE222C2
:10235800FB0EE36AE32A000EE66EC0EC14F0FC0EF6
:10236800E124D96EFF0EE220DA6E01C0DEFF02C062
:10237800DDFF010EE66EC0EC14F0FE0EE124D96E0E
:10238800FF0EE220DA6E01C0DEFF02C0DDFF050E9F
:10239800E66EFA0EE124016EFF0EE220026E01C025
:1023A800E6FF02C0E6FF600EE66E000EE66EC3ECC6
:1023B80012F00A0EE66EE0EC07F0AFEF11F0FB0E3C
:1023C800E126FF0EE2221200000EE66E8CEC14F0FD
:1023D8000C0EE66EA4EC14F0020EE66E050EE66E28
:1023E80010EC14F0010EE66E000EE66EB7EC14F079
:1023F800FF0EE66E8EEC12F0010EE66EF8EC13F0AE
:10240800300EE66E290EE66EAEEC14F0010EE66EA6
:102418003DEC14F09590300EE66E000EE66E20EC62
:1024280012F0600EE66E000EE66E40EC0FF02C6ABD
:102438002B6A2A6A296A1200FE0EE3CFD9FFFF0E23
:10244800E3CFDAFF000EDF6EFE0EE3CF0BF0FF0ED8
:10245800E3CF0CF0010E0B24D96E000E0C20DA6EBF
:10246800000EDE6E000EDD6EFE0EE3CF0BF0FF0EEB
:10247800E3CF0CF00D0E0B24D96E000E0C20DA6E93
:10248800000EDF6EFE0EE3CF0BF0FF0EE3CF0CF075
:102498000E0E0B24D96E000E0C20DA6E000EDF6EC5
:1024A800E552E5521200E652FF0EE36A7AEF12F0A7
:1024B800FF0EE3506A0D820EF324D96E000EF4204D
:1024C800DA6EFD0EE350DE1808E1FE0EE350DE186A
:1024D800D8A471EF12F073EF12F078EF12F0FF0E3C
:1024E800E3CF01F08AEF12F0FF0EE32A22EE93F019
:1024F800FF0EE3CF01F0DE50015CD8A086EF12F0AA
:1025080088EF12F05CEF12F0000E016EE552E55212
:10251800E5521200E652E652FD0EE350D8B497EFAA
:1025280012F099EF12F0A5EF12F0FD0EE3500B6ECA
:102538000C6AFE0E0BC0E3FFFF0E0CC0E3FFAFEF0B
:1025480012F0FF0E0B6E000E0C6EFE0E0BC0E3FFBA
:10255800FF0E0CC0E3FFFE0EE3CF51F02F6A246A92
:10256800236A226A216A95929594959695988C92F9
:102578008C948C968C98E552E552E5521200E652FE
:10258800FF0EE36AE2EF12F0FF0EE3CF0CF0FB0E52
:10259800E3CF09F0FC0EE3CF0AF00C500924D96E02
:1025A800000E0A20DA6EDF50E66EFC0EE3CFE6FF7F
:1025B800E3CFE6FF50EC0DF0FF0EE32AE150FF0FEA
:1025C800D96EE250DA6EFF0EDA22FA0EE350DE5CC4
:1025D800D8A0F1EF12F0F3EF12F0C8EF12F0FA0EF4
:1025E800E126FF0EE2221200E652FF0EE36A14EF24
:1025F80013F0FF0EE3500B6E0C6AFB0EE3500B2634
:10260800FC0EE3500C220BC0E6FF0CC0E6FFFB0EED
:10261800E3CFE6FFE3CFE6FFCAEC0EF0FF0EE32AB6
:10262800E150FF0FD96EE250DA6EFF0EDA22FA0E91
:10263800E350DE5CD8A023EF13F025EF13F0FDEF95
:1026480012F0FA0EE126FF0EE222120051EC14F00D
:102658000A0EE66E140EE66E000EE66EC80EE66E04
:1026680096EC10F0090EE66EA40EE66E1B0EE66EF2
:10267800C90EE66E96EC10F0060EE66E500EE66E8B
:10268800230EE66ECA0EE66E96EC10F0050EE66EA8
:10269800A20EE66E1C0EE66ECB0EE66E96EC10F001
:1026A80080EC14F056EF13F006EF00F0FD0EE35047
:1026B8000B6E0C6AFE0EE3CFD9FFFF0EE3CFDAFFF5
:1026C8000BC0DEFF0CC0DDFFFE0EE3CF0BF0FF0EEC
:1026D800E3CF0CF00C0E0B24D96E000E0C20DA6E32
:1026E800000EDF6EFE0EE3CF0BF0FF0EE3CF0CF013
:1026F8000D0E0B24D96E000E0C20DA6E000EDF6E64
:10270800E552E552E5521200FF0EE3CF01F0030E49
:10271800016491EF13F093EF13F095EF13F0AFEF1F
:1027280013F0FE0EE350515CD8B09DEF13F09FEF0D
:1027380013F0A2EF13F0FE0E51C0E3FFFF0EE350BB
:102748000B6E0C6A210E0B24D96E000E0C20DA6E6B
:10275800FE0EE3CFDFFFE552E5521200B00EF66E33
:10276800290EF76E000EF86E0900F5CF51F009003A
:10277800F5CF52F000EE81F024EE15F0EE6ADD5050
:10278800D950FCE1DA50FAE100EE60F0210EEE6A71
:10279800E806FDE100EE21F01E0EEE6AE806FDE116
:1027A800000EF86E00012AEF13F0F2A2DEEF13F02C
:1027B800E0EF13F0F7EF13F0F2922D502E10D8B48B
:1027C800E8EF13F0EAEF13F0F7EF13F002D8F7EFA2
:1027D80013F00500FA6E2D50FD6E2E50FE6EF85067
:1027E800FF6EFA50120012009380FF0EE350D8A437
:1027F80000EF14F004EF14F00C6A0C2A05EF14F043
:102808000C6A0C3A0C460C46F1500C18BF0B0C180D
:10281800F16EF292E5521200FF0EE3CF0CF00C4677
:102828000C460C46C0500C18C70B0C18C06EFE0E98
:10283800E3CF0CF0C0500C18F80B0C18C06EC08E0B
:10284800E552E5521200939E81BE2DEF14F030EF51
:1028580014F0010E31EF14F0000EFF0A0C6E0C326A
:102868000C328A500C187F0B0C188A6E28EF14F063
:102878001200FF0EE350D8A444EF14F048EF14F010
:102888000C6A0C2A49EF14F00C6A0C3AF2500C1836
:10289800EF0B0C18F26EE5521200000EE8CF93F21F
:1028A800000EE8CF94F2000EE8CF95F2010EE66E26
:1028B8004E0EE66E280EE66E000EE66E96EC10F0F2
:1028C8001200D59AD596D550F80B0609D56E000E8C
:1028D800D76E800ED66EF28AF294D58E1200C2821E
:1028E800C2B279EF14F07BEF14F074EF14F0C3CF99
:1028F80001F0C4CF02F01200D0EC14F0D6EC14F0C2
:1029080029EC10F0E8EC11F065EC14F0F28E1200EE
:10291800FF0EE3CF0CF00C460C46C2500C18C30B4C
:102928000C18C26EE55212005250D8B49EEF14F043
:10293800A1EF14F0010EA2EF14F0000E526E120077
:10294800FF0EE3CF0CF0C1500C18F00B0C18C16E41
:10295800E5521200FE0EE3CF2DF0FF0EE3CF2EF06E
:10296800E552E5521200FE0EE3B002D0C29001D04B
:10297800C280E552E5521200FF0EE350E66E8CEC81
:1029880014F073EC14F0E5521200AFEC06F001C03D
:1029980094F202C095F21200D38CD38AD388D382E2
:0A29A800D3901200F28C1200FF0120
:020000040030CA
:080000000008181EFF8181FFBA
:00000001FF
