:0400000007EF00F016
:0A0008001A8266ED05F08AEF0BF096
:100800000000F29E01015B51D96EDA6ADE06000E2D
:10081000DD5A5B51D96EDA6A010EDBBE14EF04F0CB
:1008200012EF04F064EF05F024EE7EF05B51E16E10
:10083000E26A0C0EE126E750020D5B51F324E16EF3
:10084000E26A020EE126DECFE6FFDDCFE5FF5B5177
:10085000D96EDA6A0C0ED9265B51E16EE26A0C0E93
:10086000E126E7505C6F010E5C254F6F506B000E68
:100870005023000E526F050E516FBBEC08F00101C2
:100880004F51DF6E24EE7EF010EE03F0DE50E126D5
:10089000DD50E222E604D8A450EF04F052EF04F059
:1008A000C0EF04F024EE7EF010EE06F0DE50E126FC
:1008B000DD50E222E0CFE7FF24EE7EF010EE08F0FC
:1008C000DE50E126DD50E222D8CFE7FF24EE7EF0B5
:1008D00010EE07F0DE50E126DD50E222E8CFE7FF20
:1008E00024EE7EF010EE69F0DE50E126DD50E222CB
:1008F000E76AAEEF04F024EE7EF010EE69F0DE5011
:10090000E126DD50E222E75001015C6F5C51030DEE
:10091000F3CF5DF1F4CF5EF124EE7EF0DECF5FF138
:10092000DDCF60F15D515F25616F5E516021626FC7
:10093000090E6125D96E000E6221DA6EFDCFDEFF51
:10094000FECFDEFFFFCFDEFF24EE7EF010EE69F07B
:10095000DE50E126DD50E222E72A0600FC50D8A452
:10096000B4EF04F0B6EF04F07BEF04F024EE7EF079
:1009700010EE03F0DE50E126DD50E222030EE76EBA
:1009800043EC0CF024EE7EF010EE03F0DE50E12696
:10099000DD50E222E750D8A4D0EF04F0D2EF04F00B
:1009A00064EF05F024EE7EF010EE06F0DE50E12656
:1009B000DD50E222E750E06E24EE7EF010EE08F00B
:1009C000DE50E126DD50E222E750D86E24EE7EF0C4
:1009D00010EE07F0DE50E126DD50E222E750010183
:1009E0005C6F5C51FC6A24EE7EF010EE69F0DE5024
:1009F000E126DD50E222E750D8A401EF05F003EF35
:100A000005F017EF05F0050024EE7EF010EE01F082
:100A1000DE50E126DD50E222E6CF5CF1E5CF5DF16C
:100A20005CC1FDFF5DC1FEFFFF6A5AEF05F00500E6
:100A300024EE7EF010EE69F0DE50E126DD50E22279
:100A4000E70624EE7EF010EE69F0DE50E126DD5080
:100A5000E222E75001015C6F5C51030DF3CF5DF1C1
:100A6000F4CF5EF124EE7EF0DECF5FF1DDCF60F1FA
:100A70005D515F25616F5E516021626F090E6125D6
:100A8000D96E000E6221DA6EDECFFDFFDECFFEFFF3
:100A9000DDCFFFFF24EE7EF010EE69F0DE50E126A0
:100AA000DD50E222E750D8A458EF05F05AEF05F0E8
:100AB00017EF05F024EE7EF010EE03F0DE50E12695
:100AC000DD50E222010EE76EF28E12000600E1CF49
:100AD00014F0E2CF15F0D9CF16F0DACF17F0F3CF3C
:100AE00018F0F4CF19F0F29EF2A479EF05F07BEF45
:100AF00005F09CEF06F0F294B5EC09F024EE7EF0E0
:100B000010EE03F0DE50E126DD50E222E604D8A428
:100B10008CEF05F08EEF05F0FAEF05F024EE7EF095
:100B200010EE06F0DE50E126DD50E222E0CFE7FFD6
:100B300024EE7EF010EE08F0DE50E126DD50E222D9
:100B4000D8CFE7FF24EE7EF010EE07F0DE50E1266E
:100B5000DD50E222E8CFE7FF24EE7EF010EE69F0F0
:100B6000DE50E126DD50E222E76AE9EF05F024EEEF
:100B70007EF010EE69F0DE50E126DD50E222E75013
:100B80000D6E0D50030DF3CF0EF0F4CF0FF024EEE9
:100B90007EF0DECF10F0DDCF11F00E501024126E7B
:100BA0000F501120136E090E1224D96E000E13205F
:100BB000DA6EFDCFDEFFFECFDEFFFFCFDEFF24EEDD
:100BC0007EF010EE69F0DE50E126DD50E222E72AE9
:100BD0000600FC50D8A4EFEF05F0F1EF05F0B7EFF9
:100BE00005F024EE7EF010EE03F0DE50E126DD503D
:100BF000E222E76A4BEC0CF024EE7EF010EE03F0FC
:100C0000DE50E126DD50E222E750D8A40AEF06F0DC
:100C10000CEF06F09CEF06F024EE7EF010EE06F0EE
:100C2000DE50E126DD50E222E750E06E24EE7EF059
:100C300010EE08F0DE50E126DD50E222E750D86EDB
:100C400024EE7EF010EE07F0DE50E126DD50E222C9
:100C5000E7500D6E0D50FC6A24EE7EF010EE69F048
:100C6000DE50E126DD50E222E750D8A43AEF06F04C
:100C70003CEF06F050EF06F0050024EE7EF010EE9B
:100C800001F0DE50E126DD50E222E6CF0DF0E5CFA7
:100C90000EF00DC0FDFF0EC0FEFFFF6A92EF06F0E2
:100CA000050024EE7EF010EE69F0DE50E126DD5006
:100CB000E222E70624EE7EF010EE69F0DE50E12637
:100CC000DD50E222E7500D6E0D50030DF3CF0EF014
:100CD000F4CF0FF024EE7EF0DECF10F0DDCF11F078
:100CE0000E501024126E0F501120136E090E122494
:100CF000D96E000E1320DA6EDECFFDFFDECFFEFFD1
:100D0000DDCFFFFF24EE7EF010EE69F0DE50E1262D
:100D1000DD50E222E750D8A490EF06F092EF06F003
:100D200050EF06F024EE7EF010EE03F0DE50E126E8
:100D3000DD50E222010EE76EF28E19C0F4FF18C0FA
:100D4000F3FF17C0DAFF16C0D9FF15C0E2FF14C0C9
:100D5000E1FF1A921100056EF29E24EE7EF010EE75
:100D600005F0DE50E126DD50E22205C0E7FF24EE6B
:100D70007EF010EE03F0DE50E126DD50E222E604C4
:100D8000D8A4C5EF06F0C7EF06F035EF07F024EE64
:100D90007EF010EE06F0DE50E126DD50E222E0CFDC
:100DA000E7FF24EE7EF010EE08F0DE50E126DD5085
:100DB000E222D8CFE7FF24EE7EF010EE07F0DE50FF
:100DC000E126DD50E222E8CFE7FF24EE7EF010EED0
:100DD00069F0DE50E126DD50E222E76A23EF07F0FA
:100DE00024EE7EF010EE69F0DE50E126DD50E222C6
:100DF000E7500001886F8851030DF3CF89F0F4CFDD
:100E00008AF024EE7EF0DECF8BF0DDCF8CF08951BE
:100E10008B258D6F8A518C218E6F090E8D25D96E91
:100E2000000E8E21DA6EFDCFDEFFFECFDEFFFFCF9C
:100E3000DEFF24EE7EF010EE69F0DE50E126DD509C
:100E4000E222E72A0600FC50D8A429EF07F02BEF96
:100E500007F0F0EF06F024EE7EF010EE03F0DE5027
:100E6000E126DD50E222020EE76E43EC0CF024EEA8
:100E70007EF010EE03F0DE50E126DD50E222E75076
:100E8000D8A445EF07F047EF07F0D9EF07F024EEBD
:100E90007EF010EE06F0DE50E126DD50E222E75053
:100EA000E06E24EE7EF010EE08F0DE50E126DD501C
:100EB000E222E750D86E24EE7EF010EE07F0DE500E
:100EC000E126DD50E222E7500001886F8851FC6A7C
:100ED00024EE7EF010EE69F0DE50E126DD50E222D5
:100EE000E750D8A476EF07F078EF07F08CEF07F023
:100EF000050024EE7EF010EE01F0DE50E126DD501C
:100F0000E222E6CF88F0E5CF89F088C0FDFF89C0F6
:100F1000FEFFFF6ACFEF07F0050024EE7EF010EE33
:100F200069F0DE50E126DD50E222E70624EE7EF095
:100F300010EE69F0DE50E126DD50E222E7500001BC
:100F4000886F8851030DF3CF89F0F4CF8AF024EE37
:100F50007EF0DECF8BF0DDCF8CF089518B258D6F4D
:100F60008A518C218E6F090E8D25D96E000E8E212F
:100F7000DA6EDECFFDFFDECFFEFFDDCFFFFF24EE1A
:100F80007EF010EE69F0DE50E126DD50E222E750FF
:100F9000D8A4CDEF07F0CFEF07F08CEF07F024EEE9
:100FA0007EF010EE03F0DE50E126DD50E222010E6D
:100FB000E76EF28E120024EE7EF010EE01F0DE50AD
:100FC000E126DD50E222E6CF4FF1E5CF50F1EBEC28
:100FD0000AF001015A6F596B010E5A254F6F506B81
:100FE000000E50237DC457F15751516F526BBBEC2B
:100FF00008F001014F515A6F5A516A0D6C0EF324DB
:10100000D96E020EF420DA6EC20EDE1807E1170E5A
:10101000DE18D8A40EEF08F010EF08F01FEF08F06C
:10102000592B010E596517EF08F019EF08F01FEF63
:1010300008F06B0E556F020E566F4BEF08F05A51C9
:101040006A0D6E0EF324D96E020EF420DA6EDF50B4
:10105000D8A42DEF08F02FEF08F0ECEF07F05A516D
:101060006A0D6C0EF324D96E020EF420DA6EC20EF5
:10107000DE1809E1170EDE18D8B441EF08F043EF8F
:1010800008F0ECEF07F05A516A0D6B0EF324556F20
:10109000020EF420566F120024EE7EF010EE01F0E6
:1010A000DE50E126DD50E222E6CF01F0E5CF02F08E
:1010B0003CEC0BF00C6E0B6A010E0C24016E026A04
:1010C000000E02227DC409F00950036E046A13EC7D
:1010D00009F001500C6E0C506A0D6C0EF324D96EA1
:1010E000020EF420DA6EC20EDE1807E1170EDE18CB
:1010F000D8A47DEF08F07FEF08F08EEF08F00B2A00
:10110000010E0B6486EF08F088EF08F08EEF08F010
:101110006B0E076E020E086EBAEF08F00C506A0DE7
:101120006E0EF324D96E020EF420DA6EDF50D8A4CE
:101130009CEF08F09EEF08F05CEF08F00C506A0D91
:101140006C0EF324D96E020EF420DA6EC20EDE1895
:1011500009E1170EDE18D8B4B0EF08F0B2EF08F0CE
:101160005CEF08F00C506A0D6B0EF324076E020E54
:10117000F420086E12000101546B50BFC4EF08F058
:10118000C2EF08F0CAEF08F04F6D501FD8B0502BD7
:10119000010E546F52BFD1EF08F0CFEF08F0D5EF3A
:1011A00008F0516D521FD8B0522B51515211D8B482
:1011B000DCEF08F0DEEF08F002EF09F0010E536FEC
:1011C000E6EF08F0D89051375237532B52AFEBEF80
:1011D00008F0EDEF08F0E2EF08F051514F5D525189
:1011E0005059D8A0F6EF08F0F8EF08F0FCEF08F03F
:1011F00051514F5F5251505BD89052335133532F5E
:10120000EDEF08F05451D8B408EF09F00AEF09F0F7
:101210000EEF09F04F6D501FD8B0502B4FC14FF15A
:1012200050C150F11200066A02BE1BEF09F019EF1F
:1012300009F021EF09F0016C021ED8B0022A010E5C
:10124000066E04BE28EF09F026EF09F02CEF09F036
:10125000036C041ED8B0042A03500410D8B433EF32
:1012600009F035EF09F059EF09F0010E056E3DEF79
:1012700009F0D89003360436052A04AE42EF09F08F
:1012800044EF09F039EF09F00350015C04500258B3
:10129000D8A04DEF09F04FEF09F053EF09F00350DC
:1012A000015E0450025AD89004320332052E44EFF6
:1012B00009F00650D8B45FEF09F061EF09F065EF6F
:1012C00009F0016C021ED8B0022A01C001F002C070
:1012D00002F01200F29E01015551D96EDA6ADE2A3F
:1012E000000EDD225551D96EDA6A010EDBBE84EFA5
:1012F00009F0010EDB5006E1DE04D8B082EF09F000
:1013000084EF09F0B3EF09F05551D96EDA6A0D0E8A
:10131000D926DF50020D5551F324D96EDA6A020E38
:10132000D92610EE03F0DE50E126DD50E222E76A16
:101330005551D96EDA6A0D0ED9265551E16EE26A21
:101340000D0EE126E750566F010E56254F6F506B7C
:10135000000E5023000E526F050E516FBBEC08F0CB
:1013600001014F51DF6EF28E1200010E026EEDEFA1
:1013700009F002506A0D6E0EF324D96E020EF420AD
:10138000DA6E020EDE18D8A4C8EF09F0CAEF09F031
:10139000ECEF09F002506A0D700EF324D96E020EC4
:1013A000F420DA6EDF0602506A0D700EF324D96E57
:1013B000020EF420DA6EDF50D8A4E1EF09F0E3EF7B
:1013C00009F0ECEF09F002506A0D6E0EF324D96EAD
:1013D000020EF420DA6EDF6A022A24EE7DF0DE507F
:1013E000025CD8A0F6EF09F0F8EF09F0B9EF09F0C8
:1013F000120083B2FEEF09F001EF0AF0010E02EFD6
:101400000AF0000EFF0A0101676F67478C506719E9
:10141000FD0B67198C6E600E636F680E646F010EB2
:10142000656FB4EC0AF0610E01016819D8A41BEFD6
:101430000AF01DEF0AF020EF0AF08B80F9EF09F0B7
:10144000620E6819D8A427EF0AF029EF0AF02CEFF2
:101450000AF08B82F9EF09F0630E6819D8A433EF14
:101460000AF035EF0AF039EF0AF08B908B92F9EF22
:1014700009F0F9EF09F012008FC04AF190C04BF16A
:1014800091C04CF1000E01014E6F000E4D6F83B004
:101490004CEF0AF04FEF0AF0010E50EF0AF0000E89
:1014A000FF0A0101496F8C504919FE0B49198C6ED6
:1014B000600E056E4A0E4D25D96E010E4E21DA6E74
:1014C000DF50066E7BEC0AF0010E01014D254F6FD7
:1014D000000E4E21506F000E526F030E516FBBEC89
:1014E00008F04FC14DF150C14EF1320EABEC06F099
:1014F00047EF0AF01200F29E0550130F01015B6FD7
:1015000001EC04F00550D96EDA6A010ED926DF50DD
:10151000076E05500724D96EDA6A020ED92606C076
:10152000DFFF0550D96EDA6A010ED9260550E16E4B
:10153000E26A010EE126E750076E010E0724010161
:101540004F6F506B000E5023000E526F030E516F01
:10155000BBEC08F001014F51DF6E0550050F556FD0
:101560006AEC09F0F28E1200F29E01016351050F40
:101570005B6F01EC04F001016351D96EDA6ADF5050
:10158000666F63516625D96EDA6A020ED92664C188
:10159000E1FF65C1E2FFDFCFE7FF6351D96EDA6A91
:1015A0006351E16EE26AE750666F010E66254F6F88
:1015B000506B000E5023000E526F030E516FBBECA8
:1015C00008F001014F51DF6E6351130F556F6AEC44
:1015D00009F0F28E12000101536B07EF0BF053512B
:1015E0006A0D6C0EF324D96E020EF420DA6E4F51A0
:1015F000DE1807E15051DE18D8A401EF0BF003EF1D
:101600000BF006EF0BF0535113EF0BF0532B24EEBE
:101610007DF0DE50535DD8A010EF0BF012EF0BF011
:10162000EFEF0AF0000E12000201006F00C201F29B
:101630006AC102F26BC103F26CC105F20201046BD4
:10164000076B096B086B6A6B22EE01F07DC46DF1CC
:1016500001016D516A0D6B0EF324E16E020EF42050
:10166000E26E690EDBCFE3FFE806FCE27DC4E8FF33
:10167000010FE8CF7DF41200056A57EF0BF005501B
:101680006A0D6C0EF324D96E020EF420DA6E01504E
:10169000DE1807E10250DE18D8A451EF0BF053EF2B
:1016A0000BF056EF0BF0055063EF0BF0052A24EE1C
:1016B0007DF0DE50055CD8A060EF0BF062EF0BF020
:1016C0003FEF0BF0000E12000EEC0CF0780E010153
:1016D0006A6F140E6B6F050E6C6F640E14EC0BF0DA
:1016E000F20E01016A6F130E6B6F050E6C6F650EC3
:1016F00014EC0BF0F00E01016A6F170E6B6F050E04
:101700006C6F660E14EC0BF03BEC0CF086EF0BF0FC
:1017100007EF00F0A80EF66E180EF76E000EF86ECA
:101720000900F5CF8FF00900F5CF90F00900F5CF53
:1017300091F002EE6BF012EE15F0EE6AE550E1501A
:10174000FCE1E250FAE100EE60F0210EEE6AE806FC
:10175000FDE11A901A92000164EF0BF001016E5145
:10176000D96EDA6ADF6A6E51D96EDA6A010ED9264D
:10177000DF6A6E51050F6A6F000E6B6FC9EC0BF0DC
:1017800001016E51130F6A6F030E6B6FC9EC0BF002
:10179000120001016B516C6F6D6B6A51D96EDA6A80
:1017A0006CC1DEFF6DC1DDFF6A51D96EDA6A0C0EC5
:1017B000D926DF6A6A51D96EDA6A0D0ED926DF6A38
:1017C0001200959683B6E7EF0BF0EAEF0BF0010EEF
:1017D000EBEF0BF0000EFF0A016E014601460146D9
:1017E0008C500118F70B01188C6EE2EF0BF0120011
:1017F00083B4FDEF0BF000EF0CF0010E01EF0CF0E5
:10180000000EFF0A0101696F694769478C50691929
:10181000FB0B69198C6EF8EF0BF01200000EE8CF8D
:101820007DF4000EE8CF7EF4000EE8CF7FF4C20E08
:1018300001016A6F170E6B6F010E6C6F000E14ECD6
:101840000BF01200D59AD596D550F80B0609D56E37
:10185000000ED76E800ED66EF28AF294D58E1200EC
:1018600095949592959094929490600E01016E6F6C
:10187000AEEC0BF0120052EC0CF030EC0CF022EC61
:101880000CF0F28E1200DBEC07F0010155C17EF482
:1018900056C17FF412004CEC08F007C07EF408C07B
:0B18A0007FF41200F28C120061626302
:00000001FF
