:04000000FEEF3FF0E0
:1008000000000001606F60C061F001C062F002C0D2
:1008100063F003C065F00001646B676B696B686B24
:100820006A0ECA6F20EE61F0DDC204F004506A0D5A
:10083000CB0EF324E16E000EF420E26E690EDBCFE6
:10084000E3FFE806FCE2DDC2E8FF010FE8CFDDF2DE
:100850001200000EE8CFDDF2CB0EE8CFDEF2000E84
:10086000E8CFDFF2000E016E000E026E010E036E85
:10087000000E01EC04F0120000EECBF012EE15F0C9
:10088000EE6AE550E150FCE1E250FAE1000149EF87
:1008900004F029EC04F051EC04F04DEF04F0FEEF0D
:0408A0003FF0120013
:047FFC003CEF04F062
:00000001FF
