:0400000007EF00F016
:0A0008000D8201ED04F0F6EF05F0A3
:1008000000000600E1CF09F0E2CF0AF0D9CF0BF0EB
:10081000DACF0CF0F2A40FEF04F011EF04F03AEF8E
:1008200005F0F29422EEE4F010EE03F0DE50E12643
:10083000DD50E222E604D8A420EF04F022EF04F019
:100840008CEF04F022EEE4F010EE06F0DE50E1262C
:10085000DD50E222E0CFE7FF22EEE4F010EE08F0F8
:10086000DE50E126DD50E222D8CFE7FF22EEE4F0B1
:1008700010EE07F0DE50E126DD50E222E8CFE7FF80
:1008800022EEE4F0DECF05F0DDCF06F0090E0526FE
:10089000000E062222EEE4F010EE69F0DE50E126B2
:1008A000DD50E22205C0E6FF06C0E5FF7BEF04F065
:1008B00022EEE4F010EE69F0DE50E126DD50E22297
:1008C000E6CF05F0E5CF06F005C0D9FF06C0DAFF98
:1008D000FDCFDEFFFECFDEFFFFCFDEFF22EEE4F036
:1008E00010EE69F0DE50E126DD50E222030EE6262E
:1008F000000EE5220600FC50D8A481EF04F083EF3F
:1009000004F058EF04F022EEE4F010EE03F0DE50B5
:10091000E126DD50E222E76A1BEC06F022EEE4F06D
:1009200010EE03F0DE50E126DD50E222E750D8A4BD
:100930009CEF04F09EEF04F03AEF05F022EEE4F0B5
:1009400010EE06F0DE50E126DD50E222E750E06EC8
:1009500022EEE4F010EE08F0DE50E126DD50E22257
:10096000E750D86E22EEE4F010EE07F0DE50E126FC
:10097000DD50E222E750056E0550FC6A050022EECC
:10098000E4F0DECF05F0DDCF06F0090E0526000EFF
:10099000062222EEE4F010EE69F0DE50E126DD5092
:1009A000E2220550E61807E10650E618D8A4DBEF6E
:1009B00004F0DDEF04F0F0EF04F022EEE4F010EECE
:1009C00001F0DE50E126DD50E222E6CF05F0E5CF72
:1009D00006F005C0FDFF06C0FEFFFF6A12EF05F03E
:1009E00022EEE4F010EE69F0DE50E126DD50E22266
:1009F000030EE65E000EE55A22EEE4F010EE69F01A
:100A0000DE50E126DD50E222E6CF05F0E5CF06F02C
:100A100005C0D9FF06C0DAFFDECFFDFFDECFFEFF47
:100A2000DDCFFFFF22EEE4F0DECF05F0DDCF06F0F4
:100A3000090E0526000E062222EEE4F010EE69F003
:100A4000DE50E126DD50E2220550E61807E10650AF
:100A5000E618D8A42EEF05F030EF05F0BEEF04F055
:100A600022EEE4F010EE03F0DE50E126DD50E2224B
:100A7000010EE76E0CC0DAFF0BC0D9FF0AC0E2FF1F
:100A800009C0E1FF0D9211000001606F60C061F0CC
:100A900008C062F009C063F00AC065F00001646B31
:100AA000676B696B686B6A0ECA6FCB6B20EE61F087
:100AB000E3C20BF00B506B0DCC0EF324E16E000E75
:100AC000F420E26E6A0EDBCFE3FFE806FCE2E3C24D
:100AD000E8FF010FE8CFE3F21200D0EC05F0C60EFC
:100AE000086E0B0E096E050E0A6E640E44EC05F0DE
:100AF000780E086E0B0E096E050E0A6E650E44EC3C
:100B000005F04E0E086E0B0E096E050E0A6E660E8F
:100B100044EC05F013EC06F08CEF05F007EF00F065
:100B2000959683B696EF05F099EF05F0010E9AEFD2
:100B300005F0000EFF0A016E0146014601468C5089
:100B40000118F70B01188C6E91EF05F0120083B4B9
:100B5000ACEF05F0AFEF05F0010EB0EF05F0000EC1
:100B6000FF0A076E074607468C500718FB0B07184D
:100B70008C6EA7EF05F0120083B2C1EF05F0C4EF51
:100B800005F0010EC5EF05F0000EFF0A066E0646E1
:100B90008C500618FD0B06188C6EBCEF05F0120089
:100BA000000EE8CFE3F2CC0EE8CFE4F2000EE8CF7F
:100BB000E5F2200E086E0B0E096E010E0A6E000E95
:100BC00044EC05F0120083B0E8EF05F0EBEF05F020
:100BD000010EECEF05F0000EFF0A056E8C500518B3
:100BE000FE0B05188C6EE3EF05F0120000EECCF062
:100BF00012EE1AF0EE6AE550E150FCE1E250FAE143
:100C00000D900D9200016DEF05F0D59AD596D55057
:100C1000F80B0609D56E000ED76E800ED66EF28ADE
:100C2000F294D58E12002BEC06F005EC06F027ECC2
:100C300006F0F28E120022EC06F001C003F002C0B2
:100C400004F01200CC0E016E000E026E120095949C
:0A0C5000959295901200F28C1200AC
:00000001FF
