:0400000007EF00F016
:0A0008003A8261ED05F06FEF09F098
:100800000000F29E2350D96EDA6ADE06000EDD5A31
:100810002350D96EDA6A010EDBBE13EF04F011EF3C
:1008200004F05FEF05F022EEE6F02350E16EE26A9D
:100830000C0EE126E750020D2350F324E16EE26A2C
:10084000020EE126DECFE6FFDDCFE5FF2350D96EB5
:10085000DA6A0C0ED9262350E16EE26A0C0EE1260C
:10086000E750246E010E2424176E186A000E182219
:10087000000E1A6E050E196E84EC07F01750DF6E2D
:1008800022EEE6F010EE03F0DE50E126DD50E2222B
:10089000E604D8A44EEF04F050EF04F0BDEF04F0EE
:1008A00022EEE6F010EE06F0DE50E126DD50E22208
:1008B000E0CFE7FF22EEE6F010EE08F0DE50E12692
:1008C000DD50E222D8CFE7FF22EEE6F010EE07F08F
:1008D000DE50E126DD50E222E8CFE7FF22EEE6F02F
:1008E00010EE69F0DE50E126DD50E222E76AABEF60
:1008F00004F022EEE6F010EE69F0DE50E126DD5065
:10090000E222E750246E2450030DF3CF25F0F4CFFC
:1009100026F022EEE6F0DECF27F0DDCF28F02550DE
:100920002724296E265028202A6E090E2924D96EE4
:10093000000E2A20DA6EFDCFDEFFFECFDEFFFFCFF6
:10094000DEFF22EEE6F010EE69F0DE50E126DD502B
:10095000E222E72A0600FC50D8A4B1EF04F0B3EF7E
:1009600004F079EF04F022EEE6F010EE03F0DE5032
:10097000E126DD50E222030EE76ECEEC09F022EE16
:10098000E6F010EE03F0DE50E126DD50E222E75003
:10099000D8A4CDEF04F0CFEF04F05FEF05F022EE26
:1009A000E6F010EE06F0DE50E126DD50E222E750E0
:1009B000E06E22EEE6F010EE08F0DE50E126DD50AB
:1009C000E222E750D86E22EEE6F010EE07F0DE509D
:1009D000E126DD50E222E750246E2450FC6A22EE2C
:1009E000E6F010EE69F0DE50E126DD50E222E7503D
:1009F000D8A4FDEF04F0FFEF04F013EF05F00500BD
:100A000022EEE6F010EE01F0DE50E126DD50E222AB
:100A1000E6CF24F0E5CF25F024C0FDFF25C0FEFF82
:100A2000FF6A55EF05F0050022EEE6F010EE69F0E2
:100A3000DE50E126DD50E222E70622EEE6F010EE7F
:100A400069F0DE50E126DD50E222E750246E2450AA
:100A5000030DF3CF25F0F4CF26F022EEE6F0DECF43
:100A600027F0DDCF28F025502724296E2650282096
:100A70002A6E090E2924D96E000E2A20DA6EDECFE6
:100A8000FDFFDECFFEFFDDCFFFFF22EEE6F010EE32
:100A900069F0DE50E126DD50E222E750D8A453EFA2
:100AA00005F055EF05F013EF05F022EEE6F010EE3D
:100AB00003F0DE50E126DD50E222010EE76EF28EF9
:100AC00012000600E1CF14F0E2CF15F0D9CF16F0F6
:100AD000DACF17F0F3CF18F0F4CF19F0F29EF2A4AA
:100AE00074EF05F076EF05F097EF06F0F29432EC34
:100AF00008F022EEE6F010EE03F0DE50E126DD50C5
:100B0000E222E604D8A487EF05F089EF05F0F5EFBF
:100B100005F022EEE6F010EE06F0DE50E126DD50A4
:100B2000E222E0CFE7FF22EEE6F010EE08F0DE5022
:100B3000E126DD50E222D8CFE7FF22EEE6F010EE0C
:100B400007F0DE50E126DD50E222E8CFE7FF22EE9B
:100B5000E6F010EE69F0DE50E126DD50E222E76AB1
:100B6000E4EF05F022EEE6F010EE69F0DE50E1264B
:100B7000DD50E222E7500D6E0D50030DF3CF0EF065
:100B8000F4CF0FF022EEE6F0DECF10F0DDCF11F063
:100B90000E501024126E0F501120136E090E1224E5
:100BA000D96E000E1320DA6EFDCFDEFFFECFDEFF22
:100BB000FFCFDEFF22EEE6F010EE69F0DE50E12618
:100BC000DD50E222E72A0600FC50D8A4EAEF05F047
:100BD000ECEF05F0B2EF05F022EEE6F010EE03F0D8
:100BE000DE50E126DD50E222E76AD5EC09F022EE84
:100BF000E6F010EE03F0DE50E126DD50E222E75091
:100C0000D8A405EF06F007EF06F097EF06F022EE06
:100C1000E6F010EE06F0DE50E126DD50E222E7506D
:100C2000E06E22EEE6F010EE08F0DE50E126DD5038
:100C3000E222E750D86E22EEE6F010EE07F0DE502A
:100C4000E126DD50E222E7500D6E0D50FC6A22EEE7
:100C5000E6F010EE69F0DE50E126DD50E222E750CA
:100C6000D8A435EF06F037EF06F04BEF06F005009D
:100C700022EEE6F010EE01F0DE50E126DD50E22239
:100C8000E6CF0DF0E5CF0EF00DC0FDFF0EC0FEFF6C
:100C9000FF6A8DEF06F0050022EEE6F010EE69F037
:100CA000DE50E126DD50E222E70622EEE6F010EE0D
:100CB00069F0DE50E126DD50E222E7500D6E0D5066
:100CC000030DF3CF0EF0F4CF0FF022EEE6F0DECFFF
:100CD00010F0DDCF11F00E501024126E0F501120C5
:100CE000136E090E1224D96E000E1320DA6EDECFB9
:100CF000FDFFDECFFEFFDDCFFFFF22EEE6F010EEC0
:100D000069F0DE50E126DD50E222E750D8A48BEFF7
:100D100006F08DEF06F04BEF06F022EEE6F010EE57
:100D200003F0DE50E126DD50E222010EE76EF28E86
:100D300019C0F4FF18C0F3FF17C0DAFF16C0D9FFBF
:100D400015C0E2FF14C0E1FF3A92110022EEE6F076
:100D500010EE01F0DE50E126DD50E222E6CF17F082
:100D6000E5CF18F076EC08F0226E216A010E2224FD
:100D7000176E186A000E1822E5C21FF01F50196E78
:100D80001A6A84EC07F01750226E22506A0DD40EB6
:100D9000F324D96E000EF420DA6E560EDE1807E149
:100DA000120EDE18D8A4D7EF06F0D9EF06F0E8EF60
:100DB00006F0212A010E2164E0EF06F0E2EF06F0D2
:100DC000E8EF06F0D30E1D6E000E1E6E14EF07F056
:100DD00022506A0DD60EF324D96E000EF420DA6E7E
:100DE000DF50D8A4F6EF06F0F8EF06F0B6EF06F005
:100DF00022506A0DD40EF324D96E000EF420DA6E60
:100E0000560EDE1809E1120EDE18D8B40AEF07F00C
:100E10000CEF07F0B6EF06F022506A0DD30EF32464
:100E20001D6E000EF4201E6E120022EEE6F010EE93
:100E300001F0DE50E126DD50E222E6CF01F0E5CF01
:100E400002F09EEC08F00C6E0B6A010E0C24016E91
:100E5000026A000E0222E5C209F00950036E046A1C
:100E6000DBEC07F001500C6E0C506A0DD40EF3242D
:100E7000D96E000EF420DA6E560EDE1807E1120E5F
:100E8000DE18D8A446EF07F048EF07F057EF07F059
:100E90000B2A010E0B644FEF07F051EF07F057EFED
:100EA00007F0D30E076E000E086E83EF07F00C50AC
:100EB0006A0DD60EF324D96E000EF420DA6EDF50E0
:100EC000D8A465EF07F067EF07F025EF07F00C50A7
:100ED0006A0DD40EF324D96E000EF420DA6E560E8D
:100EE000DE1809E1120EDE18D8B479EF07F07BEFB7
:100EF00007F025EF07F00C506A0DD30EF324076EB0
:100F0000000EF420086E12001C6A18BE8CEF07F069
:100F10008AEF07F092EF07F0176C181ED8B0182A66
:100F2000010E1C6E1ABE99EF07F097EF07F09DEFC8
:100F300007F0196C1A1ED8B01A2A19501A10D8B412
:100F4000A4EF07F0A6EF07F0CAEF07F0010E1B6E43
:100F5000AEEF07F0D89019361A361B2A1AAEB3EF47
:100F600007F0B5EF07F0AAEF07F01950175C1A5019
:100F70001858D8A0BEEF07F0C0EF07F0C4EF07F095
:100F80001950175E1A50185AD8901A3219321B2E5F
:100F9000B5EF07F01C50D8B4D0EF07F0D2EF07F050
:100FA000D6EF07F0176C181ED8B0182A17C017F024
:100FB00018C018F01200066A02BEE3EF07F0E1EF76
:100FC00007F0E9EF07F0016C021ED8B0022A010E0B
:100FD000066E04BEF0EF07F0EEEF07F0F4EF07F057
:100FE000036C041ED8B0042A03500410D8B4FBEFDD
:100FF00007F0FDEF07F021EF08F0010E056E05EF99
:1010000008F0D89003360436052A04AE0AEF08F03B
:101010000CEF08F001EF08F00350015C0450025897
:10102000D8A015EF08F017EF08F01BEF08F00350F9
:10103000015E0450025AD89004320332052E0CEFA0
:1010400008F00650D8B427EF08F029EF08F02DEF8C
:1010500008F0016C021ED8B0022A01C001F002C0E3
:1010600002F01200010E026E6AEF08F002506A0DE3
:10107000D60EF324D96E000EF420DA6E020EDE18BE
:10108000D8A445EF08F047EF08F069EF08F00250E8
:101090006A0DD80EF324D96E000EF420DA6EDF0646
:1010A00002506A0DD80EF324D96E000EF420DA6EC9
:1010B000DF50D8A45EEF08F060EF08F069EF08F0A9
:1010C00002506A0DD60EF324D96E000EF420DA6EAB
:1010D000DF6A022A22EEE5F0DE50025CD8A073EF50
:1010E00008F075EF08F036EF08F012001B6A91EF78
:1010F00008F01B506A0DD40EF324D96E000EF420B4
:10110000DA6E1750DE1807E11850DE18D8A48BEFFE
:1011100008F08DEF08F090EF08F01B509DEF08F0FD
:101120001B2A22EEE5F0DE501B5CD8A09AEF08F0F7
:101130009CEF08F079EF08F0000E1200056AB9EF95
:1011400008F005506A0DD40EF324D96E000EF42079
:10115000DA6E0150DE1807E10250DE18D8A4B3EFB2
:1011600008F0B5EF08F0B8EF08F00550C5EF08F04B
:10117000052A22EEE5F0DE50055CD8A0C2EF08F0AB
:10118000C4EF08F0A1EF08F0000E12000001686F34
:1011900068C069F064C06AF065C06BF066C06DF04D
:1011A00000016C6B6F6B716B706BD26B20EE69F032
:1011B000E5C267F067516A0DD30EF324E16E000EAD
:1011C000F420E26E690EDBCFE3FFE806FCE2E5C245
:1011D000E8FF010FE8CFE5F2120099EC09F0840E68
:1011E0000001646F120E656F050E666F640EC6EC2B
:1011F00008F0080E0001646F130E656F050E666F30
:10120000650EC6EC08F0B20E0001646F120E656F39
:10121000050E666F660EC6EC08F0C6EC09F00FEF1F
:1012200009F007EF00F000016551666F676B6451CC
:10123000D96EDA6A66C0DEFF67C0DDFF6451D96E21
:10124000DA6A0C0ED926DF6A6451D96EDA6A0D0E9D
:10125000D926DF6A1200959683B631EF09F034EF94
:1012600009F0010E35EF09F0000EFF0A016E01468C
:10127000014601468C500118F70B01188C6E2CEFBB
:1012800009F0120083B047EF09F04AEF09F0010EB0
:101290004BEF09F0000EFF0A2B6E8C502B18FE0B43
:1012A0002B188C6E2C0E236E01EC04F042EF09F02B
:1012B000120083B45EEF09F061EF09F0010E62EFF6
:1012C00009F0000EFF0A0001636F634763478C500B
:1012D0006319FB0B63198C6E59EF09F0120000EED5
:1012E000D3F012EE15F0EE6AE550E150FCE1E25069
:1012F000FAE100EE2CF00E0EEE6AE806FDE13A90FF
:101300003A920001EDEF08F083B289EF09F08CEF1B
:1013100009F0010E8DEF09F0000EFF0A0001626F67
:1013200062478C506219FD0B62198C6E84EF09F0D4
:101330001200000EE8CFE5F2000EE8CFE6F2000E54
:10134000E8CFE7F2560E0001646F120E656F010ED2
:10135000666F000EC6EC08F01200D59AD596D550EF
:10136000F80B0609D56E000ED76E800ED66EF28A87
:10137000F294D58E12009594959295902C0E0001C2
:10138000646F000E656F13EC09F01200DCEC09F0DD
:10139000BBEC09F0ADEC09F0F28E1200A6EC06F001
:1013A0001DC0E6F21EC0E7F2120015EC07F007C000
:0C13B000E6F208C0E7F21200F28C120016
:00000001FF
